:100000000C9497000C94B4000C94B4000C94B400BD
:100010000C94B4000C94B4000C94B4000C94B40090
:100020000C94B4000C94B4000C94B4000C94B40080
:100030000C94B4000C94B4000C94B4000C94B40070
:100040000C94B4000C94B4000C94B4000C94B40060
:100050000C94B4000C94B4000C94B4000C94B40050
:100060000C94B4000C94B4000C94B4000C94B40040
:100070000C94B4000C94B4000C94B4000C94B40030
:100080000C94B4000C94B4000C94B4000C94B40020
:100090000C94B4000C94B4000C94B4000C94B40010
:1000A0000C94B4000C94B4000C94B4000000000054
:1000B000240027002A002D00300000000000250049
:1000C00028002B002E003100000000002300260035
:1000D00029002C002F000404040404030405020278
:1000E00002020403020202020606060606060404D1
:1000F00002020204040802011040804010204080E7
:10010000408008020401804020100201108010206D
:1001100040400000000200080E0000030401000B34
:100120000000070605040100080A0B0C0D09112444
:100130001FBECFEFDAE0DEBFCDBF12E0A0E0B1E03E
:10014000E8EEF4E002C005900D92A63EB107D9F7A3
:1001500014E0A6EEB2E001C01D92AE3DB107E1F79A
:100160000E94B6000C9472020C9400000E943701A9
:100170000E94D60080E091E00E942A01FFCF1F93E9
:10018000982F162F85E0692F0E94FD0187E060E01F
:100190000E94FD0184E063E041E0212F0E943002D3
:1001A00087E061E00E94FD011F910895CF93DF93E6
:1001B000C0E0D0E081E060E00E94BF00219681E0D5
:1001C000C83FD807B9F720E030E00AC01192019685
:1001D00084359105D9F72F5F3F4F2435310561F004
:1001E000F901EE0FFF1FE20FF31FEE0FFF1FEA51A1
:1001F000FD4F80E090E0EACFDF91CF9108950F931B
:100200001F93CF93DF93182F81E060E00E94BF001F
:10021000812F90E08097EC01CC0FDD1FCC0FDD1F0C
:10022000C80FD91FCB5FDE4F85E0189F80011124D6
:1002300006591F4F81E069910E94BF00C017D10786
:10024000C9F781E060E00E94BF00DF91CF911F916C
:100250000F910895CF93DF93EC0103C021960E9484
:10026000FF0088818823D1F7DF91CF91089587E03F
:1002700061E00E94700186E061E00E94700185E00B
:1002800061E00E94700184E061E00E94700183E0FF
:1002900061E00E94700186E060E00E94FD0186E05E
:1002A00061E00E94FD0180E061E20E94BF0080E009
:1002B0006FEB0E94BF0080E064E00E94BF0080E01E
:1002C00064E10E94BF0080E06CE00E94BF0080E01B
:1002D00060E20E94BF0080E06CE00E94BF000895D1
:1002E000CF93DF93482F50E0CA018C509F4FFC0101
:1002F00034914A525F4FFA018491882369F190E06A
:10030000880F991FFC01E455FF4FA591B491FC01A2
:10031000E654FF4FC591D491662351F42FB7F8945A
:100320008C91932F909589238C93888189230BC07E
:10033000623061F42FB7F8948C91932F90958923B4
:100340008C938881832B88832FBF06C09FB7F89436
:100350008C91832B8C939FBFDF91CF910895883030
:1003600071F1893068F4823031F1833020F48130CA
:1003700009F042C01DC0833089F08430E9F512C015
:100380008B3059F18C3028F48930E9F08A30A1F5AE
:100390001EC08C3031F18E3079F529C080918000FB
:1003A0008F7703C0809180008F7D809380000895B7
:1003B00084B58F7702C084B58F7D84BD0895809108
:1003C00090008F7707C0809190008F7D03C080914F
:1003D0009000877F8093900008958091C0008F7770
:1003E00003C08091C0008F7D8093C00008958091EC
:1003F000C200877F8093C2000895FF920F931F93DE
:10040000F62E482F50E0CA018E5E9E4FFC012491CB
:10041000CA018C509F4FFC0114914A525F4FFA0160
:1004200004910023C9F0222319F0822F0E94AF010A
:10043000E02FF0E0EE0FFF1FE654FF4FA591B491BF
:100440009FB7F894FF2021F48C911095812302C06E
:100450008C91812B8C939FBF1F910F91FF900895DA
:10046000BF92CF92DF92EF92FF920F931F93CF93A1
:10047000DF93E82EF62EB42EC7E0D0E0022F10E076
:1004800087E0C82ED12CBB2059F4B6016C1B7D0B24
:10049000C80102C0959587956A95E2F7BC0107C02F
:1004A000B8010C2E02C0759567950A94E2F7617049
:1004B0008E2D0E94FD018F2D61E00E94FD018F2D88
:1004C00060E00E94FD0121979FEFCF3FD907D9F649
:1004D000DF91CF911F910F91FF90EF90DF90CF9020
:0804E000BF900895F894FFCFCE
:1004E800486F6C6100000000000000005F00000021
:1004F80007000700147F147F14242A7F2A1223136D
:1005080008646236495522500005030000001C2289
:1005180041000041221C0014083E081408083E0847
:100528000800503000000808080808006060000053
:1005380020100804023E5149453E00427F400042D7
:10054800615149462141454B311814127F10274506
:100558004545393C4A49493001710905033649493D
:100568004936064949291E0036360000005636002D
:100578000008142241001414141414004122140811
:100588000201510906324979413E7E1111117E7FDF
:10059800494949363E414141227F4141221C7F4918
:1005A8004949417F090909013E4149497A7F0808BB
:1005B800087F00417F41002040413F017F0814220D
:1005C800417F404040407F020C027F7F0408107F3B
:1005D8003E4141413E7F090909063E4151215E7F66
:1005E80009192946464949493101017F01013F401E
:1005F80040403F1F2040201F3F4038403F631408C1
:10060800146307087008076151494543007F414159
:100618000002040810200041417F00040201020486
:100628004040404040000102040020545454787F68
:10063800484444383844444420384444487F385473
:10064800545418087E0901020C5252523E7F080485
:10065800047800447D40002040443D007F10284439
:100668000000417F40007C041804787C080404786A
:1006780038444444387C14141408081414187C7C36
:10068800080404084854545420043F4440203C4083
:1006980040207C1C2040201C3C4030403C4428101A
:1006A80028440C5050503C4464544C440008364193
:1006B8000000007F000000413608001008081008FC
:0606C8007846414678006F
:00000001FF
