:100000000C9497000C94B4000C94B4000C94B400BD
:100010000C94B4000C94B4000C94B4000C94B40090
:100020000C94B4000C94B4000C94B4000C94B40080
:100030000C94B4000C94B4000C94B4000C94B40070
:100040000C94B4000C94B4000C94B4000C94B40060
:100050000C94B4000C94B4000C94B4000C94B40050
:100060000C94B4000C94B4000C94B4000C94B40040
:100070000C94B4000C94B4000C94B4000C94B40030
:100080000C94B4000C94B4000C94B4000C94B40020
:100090000C94B4000C94B4000C94B4000C94B40010
:1000A0000C94B4000C94B4000C94B4000000000054
:1000B000240027002A002D00300000000000250049
:1000C00028002B002E003100000000002300260035
:1000D00029002C002F000404040404030405020278
:1000E00002020403020202020606060606060404D1
:1000F00002020204040802011040804010204080E7
:10010000408008020401804020100201108010206D
:1001100040400000000200080E0000030401000B34
:100120000000070605040100080A0B0C0D09112444
:100130001FBECFEFDAE0DEBFCDBF11E0A0E0B1E03F
:10014000E8E3F5E002C005900D92A030B107D9F7C1
:1001500012E0A0E0B1E001C01D92A83FB107E1F7B5
:100160000E94B6000C949A020C9400000E945F0159
:100170000E94360180E090E060E070E00E94F800AC
:1001800080E090E064E170E00E94F80084E190E09B
:1001900060E070E00E94F80084E190E064E170E0CB
:1001A0000E94F800FFCF1F93982F162F85E0692F2C
:1001B0000E94250287E060E00E94250284E063E05F
:1001C00041E0212F0E94580287E061E00E94250251
:1001D0001F9108951F93182F6770606480E00E943C
:1001E000D300106880E0612F0E94D3001F91089512
:1001F000FF920F931F93CF93DF93EB01843591050B
:1002000060F577FD2AC0603371053CF533E07595E4
:1002100067953A95E1F78C01000F111F080F191F20
:10022000000F111F060F171F00501F4FF801F0801D
:100230000E94EA00C770D07081E090E002C0880F91
:10024000991FCA95E2F7F82AF801F08281E06F2D34
:100250000E94D30021E030E002C02FEF3FEFC90140
:10026000DF91CF911F910F91FF900895CF93DF936E
:10027000C0E0D0E081E060E00E94D300219681E000
:10028000C83FD807B9F720E030E00AC011920196C4
:1002900084359105D9F72F5F3F4F2435310561F043
:1002A000F901EE0FFF1FE20FF31FEE0FFF1FE050EB
:1002B000FF4F80E090E0EACFDF91CF91089587E093
:1002C00061E00E94980186E061E00E94980185E06B
:1002D00061E00E94980184E061E00E94980183E05F
:1002E00061E00E94980186E060E00E94250286E0BD
:1002F00061E00E94250280E061E20E94D30080E07C
:100300006FEB0E94D30080E064E00E94D30080E0A5
:1003100064E10E94D30080E06CE00E94D30080E0A2
:1003200060E20E94D30080E06CE00E94D300089558
:10033000CF93DF93482F50E0CA018C509F4FFC01B0
:1003400034914A525F4FFA018491882369F190E019
:10035000880F991FFC01E455FF4FA591B491FC0152
:10036000E654FF4FC591D491662351F42FB7F8940A
:100370008C91932F909589238C93888189230BC02E
:10038000623061F42FB7F8948C91932F9095892364
:100390008C938881832B88832FBF06C09FB7F894E6
:1003A0008C91832B8C939FBFDF91CF9108958830E0
:1003B00071F1893068F4823031F1833020F481307A
:1003C00009F042C01DC0833089F08430E9F512C0C5
:1003D0008B3059F18C3028F48930E9F08A30A1F55E
:1003E0001EC08C3031F18E3079F529C080918000AB
:1003F0008F7703C0809180008F7D80938000089567
:1004000084B58F7702C084B58F7D84BD08958091B7
:1004100090008F7707C0809190008F7D03C08091FE
:100420009000877F8093900008958091C0008F771F
:1004300003C08091C0008F7D8093C000089580919B
:10044000C200877F8093C2000895FF920F931F938D
:10045000F62E482F50E0CA018E5E9E4FFC0124917B
:10046000CA018C509F4FFC0114914A525F4FFA0110
:1004700004910023C9F0222319F0822F0E94D70192
:10048000E02FF0E0EE0FFF1FE654FF4FA591B4916F
:100490009FB7F894FF2021F48C911095812302C01E
:1004A0008C91812B8C939FBF1F910F91FF9008958A
:1004B000BF92CF92DF92EF92FF920F931F93CF9351
:1004C000DF93E82EF62EB42EC7E0D0E0022F10E026
:1004D00087E0C82ED12CBB2059F4B6016C1B7D0BD4
:1004E000C80102C0959587956A95E2F7BC0107C0DF
:1004F000B8010C2E02C0759567950A94E2F76170F9
:100500008E2D0E9425028F2D61E00E9425028F2DE5
:1005100060E00E94250221979FEFCF3FD907D9F6CF
:10052000DF91CF911F910F91FF90EF90DF90CF90CF
:08053000BF900895F894FFCF7D
:00000001FF
