:100000000C9410060C9438060C9438060C943806A0
:100010000C9438060C9438060C9438060C94380668
:100020000C9438060C9438060C94FD2B0C94842CFC
:100030000C9438060C9438060C9438060C94380648
:100040000C9438060C9438060C9438060C94380638
:100050000C9438060C9438060C9438060C941A2527
:100060000C9438060C9438060C9438060C94380618
:100070000C9438060C9438060C9438060C94380608
:100080000C9438060C9438060C9438060C943806F8
:100090000C9438060C9438060C9438060C943806E8
:1000A0000C9438060C9438060C943806446F6E6530
:1000B0002100526F756E64656420726563747320ED
:1000C0002866696C6C65642920202000526F756E6B
:1000D00064656420726563747320286F75746C693D
:1000E0006E6529202000547269616E676C6573200B
:1000F0002866696C6C65642920202020202020005F
:10010000547269616E676C657320286F75746C69D1
:100110006E652920202020202000436972636C65D1
:100120007320286F75746C696E652920202020204B
:1001300020202000436972636C6573202866696C17
:100140006C6564292020202020202020200052657A
:100150006374616E676C6573202866696C6C656496
:10016000292020202020200052656374616E676C76
:10017000657320286F75746C696E652920202020B6
:100180002000486F72697A2F56657274204C696E30
:100190006573202020202020202020004C696E65DF
:1001A00073202020202020202020202020202020FC
:1001B000202020202000546578742020202020203A
:1001C000202020202020202020202020202020004F
:1001D00053637265656E2066696C6C202020202058
:1001E0002020202020202020200042656E63686DA2
:1001F00061726B2020202020202020202020202021
:1002000020202054696D6520286D6963726F7365C5
:10021000636F6E647329006D617463686573207425
:100220006865207475746F7269616C2E00416C731F
:100230006F206966207573696E6720746865206237
:100240007265616B6F75742C20646F75626C652DBF
:10025000636865636B207468617420616C6C2077DF
:100260006972696E67004966207573696E672074EC
:10027000686520627265616B6F757420626F617270
:10028000642C2069742073686F756C64204E4F5421
:100290002062652023646566696E65642100736869
:1002A0006F756C642061707065617220696E207476
:1002B0006865206C69627261727920686561646545
:1002C00072202841646166727569745F5446542EC9
:1002D00068292E00202023646566696E65205553C9
:1002E000455F41444146525549545F534849454C46
:1002F000445F50494E4F5554004966207573696EEE
:100300006720746865204164616672756974203283
:100310002E3822205446542041726475696E6F2035
:10032000736869656C642C20746865206C696E65FF
:100330003A00556E6B6E6F776E204C4344206472AA
:100340006976657220636869703A2000466F756E41
:10035000642048583833343747204C434420647273
:100360006976657200466F756E6420494C49393371
:100370003238204C43442064726976657200466FBF
:10038000756E6420494C4939333235204C43442042
:10039000647269766572005573696E6720416461A5
:1003A000667275697420322E3822205446542042D9
:1003B0007265616B6F757420426F61726420506961
:1003C0006E6F757400544654204C4344207465731A
:1003D000740000000000003E5B4F5B3E3E6B4F6BC5
:1003E0003E1C3E7C3E1C183C7E3C181C577D571C16
:1003F0001C5E7F5E1C00183C1800FFE7C3E7FF008F
:1004000018241800FFE7DBE7FF30483A060E2629DC
:10041000792926407F050507407F05253F5A3CE79F
:100420003C5A7F3E1C1C08081C1C3E7F14227F2265
:10043000145F5F005F5F06097F017F006689956A30
:10044000606060606094A2FFA29408047E040810BB
:10045000207E201008082A1C08081C2A08081E10E4
:100460001010100C1E0C1E0C30383E3830060E3E9C
:100470000E06000000000000005F000000070007FB
:1004800000147F147F14242A7F2A12231308646225
:1004900036495620500008070300001C2241000086
:1004A00041221C002A1C7F1C2A08083E08080080E4
:1004B000703000080808080800006060002010087C
:1004C00004023E5149453E00427F4000724949497D
:1004D000462141494D331814127F102745454539AF
:1004E0003C4A4949314121110907364949493646B3
:1004F0004949291E00001400000040340000000893
:100500001422411414141414004122140802015935
:1005100009063E415D594E7C1211127C7F494949C2
:10052000363E414141227F4141413E7F4949494157
:100530007F090909013E414151737F0808087F0086
:10054000417F41002040413F017F081422417F400C
:100550004040407F021C027F7F0408107F3E4141E3
:10056000413E7F090909063E4151215E7F09192953
:1005700046264949493203017F01033F4040403F3D
:100580001F2040201F3F4038403F6314081463037E
:10059000047804036159494D43007F4141410204FD
:1005A000081020004141417F040201020440404004
:1005B0004040000307080020545478407F284444FA
:1005C000383844444428384444287F385454541814
:1005D00000087E090218A4A49C787F08040478000F
:1005E000447D40002040403D007F102844000041F1
:1005F0007F40007C047804787C0804047838444404
:100600004438FC1824241818242418FC7C080404FA
:1006100008485454542404043F44243C4040207C63
:100620001C2040201C3C4030403C44281028444CB6
:100630009090907C4464544C440008364100000083
:10064000770000004136080002010204023C262324
:10065000263C1EA1A161123A4040207A38545455DC
:1006600059215555794121545478412155547840A8
:1006700020545579400C1E5272123955555559392E
:100680005454545939555454580000457C41000283
:10069000457D420001457C40F0292429F0F02825C1
:1006A00028F07C545545002054547C547C0A097F22
:1006B0004932494949323248484832324A4848303A
:1006C0003A4141217A3A42402078009DA0A07D39EC
:1006D000444444393D4040403D3C24FF2424487E6E
:1006E0004943662B2FFC2F2BFF0929F620C0887E5B
:1006F000090320545479410000447D413048484A60
:1007000032384040227A007A0A0A727D0D19317D12
:100710002629292F28262929292630484D402038E6
:100720000808080808080808382F10C8ACBA2F10A5
:100730002834FA00007B000008142A142222142A0C
:100740001408AA005500AAAA55AA55AA000000FF3D
:1007500000101010FF00141414FF001010FF00FF11
:100760001010F010F0141414FC001414F700FF0023
:1007700000FF00FF1414F404FC141417101F1010D1
:100780001F101F1414141F00101010F000000000A0
:100790001F101010101F10101010F010000000FF9C
:1007A000101010101010101010FF10000000FF1497
:1007B0000000FF00FF00001F10170000FC04F414ED
:1007C000141710171414F404F40000FF00F71414A5
:1007D0001414141414F700F7141414171410101F21
:1007E000101F141414F4141010F010F000001F1057
:1007F0001F0000001F14000000FC140000F010F0A7
:100800001010FF10FF141414FF141010101F00001C
:100810000000F010FFFFFFFFFFF0F0F0F0F0FFFF2F
:10082000FF0000000000FFFF0F0F0F0F0F384444C0
:1008300038447C2A2A3E147E02020606027E027E8C
:100840000263554941633844443C04407E201E20E5
:1008500006027E020299A5E7A5991C2A492A1C4C8A
:100860007201724C304A4D4D303048784830BC628D
:100870005A463D3E494949007E0101017E2A2A2A05
:100880002A2A44445F444440514A444040444A5127
:10089000400000FF0103E080FF000008086B6B08C8
:1008A0003612362436060F090F060000181800000D
:1008B000001010003040FF0101001F01011E00194F
:1008C0001D1712003C3C3C3C0000000000000001F1
:1008D00000FF0032000100000102000007030030A9
:1008E000100400000008000202090000000A0000D5
:1008F000000C0000000D0000000F000000100000C0
:1009000000110007001200000013000000FF00C8E3
:10091000001000901611002702FF00320012001A8A
:1009200000FF0032001300001829002A00FF0032E7
:1009300000300000003100000032000000350006E9
:1009400002360008083700070038000102390000AD
:10095000003C0000003D00000020000000210000DD
:1009600000500000005100EF005200000053003F13
:1009700001600000A7610003006A00000090001001
:100980000092000000930003009500001197000002
:100990000098000000070033012E89298F2B02E206
:1009A00000E401E510E601E710E870F200EA00EB70
:1009B00020EC3CEDC8E938F1011B1A1A022461252C
:1009C0005C183619011F88FF051F80FF051F90FF67
:1009D000051FD4FF05170536092838FF28283C02D3
:1009E000000300040005EF060007000801093F00AE
:1009F000000000240027002A002D00300000000025
:100A000000250028002B002E0031000000000023EC
:100A100000260029002C002F000404040404030411
:100A2000050202020204030202020206060606068C
:100A3000060404020202040408020110408040106F
:100A400020408040800802040180402010020110F4
:100A500080102040400000000200080E0000030447
:100A600001000B0000070605040100080A0B0C0D2D
:100A700009080B0002020201000904000001020241
:100A800000000524001001052401010104240206D0
:100A90000524060001070581031000400904010038
:100AA000020A000000070502024000000705830259
:100AB0004000000403090422034100720064007531
:100AC0000069006E006F0020004C0065006F006E32
:100AD000006100720064006F00180341007200643E
:100AE00000750069006E006F0020004C004C004350
:100AF0000012010002000000404123368000010185
:100B00000200011201000202000040412336800071
:100B1000010102000100C18081C105010902A1019A
:100B20000901A10085010509190129031500250105
:100B30009503750181029501750581030501093051
:100B4000093109381581257F750895038106C0C0D4
:100B500005010906A1018502050719E029E715002D
:100B60002501750195088102950175088103950697
:100B70007508150025650507190029658100C0095C
:100B800004020001030000000921010100012265A7
:100B90000007058403400001000000000000000081
:100BA0002A2B2800000000000000000000000000C8
:100BB00000000000000000002C9EB4A0A1A2A434FC
:100BC000A6A7A5AE362D3738271E1F2021222324A5
:100BD0002526B333B62EB7B89F8485868788898A41
:100BE0008B8C8D8E8F909192939495969798999ADD
:100BF0009B9C9D2F3130A3AD350405060708090ADB
:100C00000B0C0D0E0F101112131415161718191ABC
:100C10001B1C1DAFB1B0B5003A064C27392B072E6F
:100C200011241FBECFEFDAE0DEBFCDBF12E0A0E09F
:100C3000B1E0EEE3F3E602C005900D92A631B107F4
:100C4000D9F712E0A6E1B2E001C01D92A03BB107C6
:100C5000E1F71CE0C0E2DCE004C02297FE010E9444
:100C60009931C831D107C9F70E9417280C949D31DA
:100C70000C940000EF920F9386E192E065E144E16D
:100C800023E102E136E1E32E0E946E240F91EF9002
:100C90000895CF93DF93EC0104C08CE892E00E94AA
:100CA0005428FE01219664916623B9F7DF91CF9114
:100CB00008950E9449068CE892E00E945C280895FD
:100CC000CF92DF92EF92FF920F931F930E946225C3
:100CD0006B017C0106E112E0C80160E070E00E9457
:100CE0000721C80160E078EF0E940721C80160EE8B
:100CF00077E00E940721C8016FE170E00E940721A0
:100D0000C80160E070E00E9407210E9462259B01FB
:100D1000AC012C193D094E095F09B901CA011F91A7
:100D20000F91FF90EF90DF90CF9008954F925F92D8
:100D30006F927F928F929F92AF92BF92CF92DF92EB
:100D4000EF92FF920F931F93CF93DF9386E192E090
:100D50000E94981762E070E00E944E314B010894A7
:100D60008108910886E192E00E949C1762E070E0A1
:100D70000E944E315B010894A108B10886E192E01F
:100D800060E070E00E9407210E9462252B013C0177
:100D900086E192E00E9498178C0186E192E00E9421
:100DA0009C17081719072CF486E192E00E94981707
:100DB00004C086E192E00E949C17EC011EC08E01E7
:100DC0001595079586E192E060E04C2F20E00E94A7
:100DD000B61B6C01B401601B710BA501401B510BCC
:100DE0007E01E3E0F594E794EA95E1F786E192E08D
:100DF0009E018E010E940D142697C531D105FCF687
:100E00000E9462259B01AC01241935094609570946
:100E1000B901CA01DF91CF911F910F91FF90EF901F
:100E2000DF90CF90BF90AF909F908F907F906F900A
:100E30005F904F9008952F923F924F925F926F92E2
:100E40007F928F929F92AF92BF92CF92DF92EF925A
:100E5000FF920F931F93CF93DF9386E192E00E945E
:100E6000981762E070E00E944E314B0108948108AF
:100E7000910886E192E00E949C1762E070E00E9477
:100E80004E315B010894A108B10886E192E060E070
:100E900070E00E94072186E192E00E9498178C0181
:100EA00086E192E00E949C17081719072CF486E14E
:100EB00092E00E94981704C086E192E00E949C177D
:100EC0001C010E9462252B013C01C0E0D0E01EC045
:100ED0008E011595079586E192E06C2F40E020E0A9
:100EE0000E94B61B6C01B401601B710BA501401B75
:100EF000510B7E01A3E0F594E794AA95E1F786E112
:100F000092E09E018E010E945A132696C215D305C7
:100F1000FCF20E9462259B01AC01241935094609A7
:100F20005709B901CA01DF91CF911F910F91FF902D
:100F3000EF90DF90CF90BF90AF909F908F907F9079
:100F40006F905F904F903F902F9008952F923F9217
:100F50004F925F926F927F928F929F92AF92BF92C9
:100F6000CF92DF92EF92FF920F931F93DF93CF9375
:100F7000CDB7DEB72C970FB6F894DEBF0FBECDBF4E
:100F800086E192E00E94981762E070E00E944E3184
:100F90001B0108942108310886E192E00E949C1709
:100FA00062E070E00E944E316B010894C108D108E4
:100FB00086E192E060E070E00E9407210E946225D5
:100FC000DC86CB862C143D0414F43C862B869601DB
:100FD0004B855C85241B350B3E832D83C101841B0F
:100FE000950B9C838B832A014C0C5D1C420D531D79
:100FF0005A8349831F82188619861A8658C00E9410
:1010000062253B014C0186E192E060E04B85242F94
:101010000E94B61B5C0186E192E0B1014D815E81C8
:101020002B813C818201E980FA8062010E94DC14FC
:101030000E94622566197709880999092F813885E8
:1010400049855A85260F371F481F591F2F83388718
:1010500049875A8786E192E06B85462F20E00E94FF
:10106000B61B5C0186E192E0B1014D815E812B816E
:101070003C81E980FA800E9485144B855C8545504F
:1010800050405C874B878D819E8105969E838D8322
:10109000EB81FC813596FC83EB832BEF3FEF420E17
:1010A000531E49815A81455050405A8349838B854C
:1010B0009C850B970CF0A3CF6F81788589859A85E5
:1010C0002C960FB6F894DEBF0FBECDBFCF91DF9147
:1010D0001F910F91FF90EF90DF90CF90BF90AF9056
:1010E0009F908F907F906F905F904F903F902F9048
:1010F00008952F923F924F925F926F927F928F92BC
:101100009F92AF92BF92CF92DF92EF92FF920F9396
:101110001F93DF93CF93CDB7DEB72A970FB6F8941E
:10112000DEBF0FBECDBF86E192E00E94981762E05D
:1011300070E00E944E31CB0101979A87898786E142
:1011400092E00E949C1762E070E00E944E318B0199
:101150000150104086E192E060E070E00E940721BB
:101160001C830B83A985BA85A017B10714F4BC832F
:10117000AB830E9462256D837E838F8398872801CD
:10118000E985FA85FA83E98348011F0166247724FB
:1011900025C086E192E060E040E0262D0E94B61B6B
:1011A0005C0186E192E069857A85A20129813A8114
:1011B0008401710164010E94851485E090E0680E4D
:1011C000791EABEFBFEF4A0E5B1EE981FA813597BE
:1011D000FA83E983880E991E280E391E8B819C8123
:1011E00068167906B4F20E9462259B01AC018D81DC
:1011F0009E81AF81B885281B390B4A0B5B0BB90167
:10120000CA012A960FB6F894DEBF0FBECDBFCF91AC
:10121000DF911F910F91FF90EF90DF90CF90BF90E3
:10122000AF909F908F907F906F905F904F903F9086
:101230002F9008952F923F924F925F926F927F92DC
:101240008F929F92AF92BF92CF92DF92EF92FF92D6
:101250000F931F93DF93CF9300D000D0CDB7DEB7AD
:101260007A836983C82EDD243601660C771C86E1FB
:1012700092E00E9498171C012C0C3D1C86E192E024
:101280000E949C172C014C0C5D1C0E9462254B0196
:101290005C01EE24FF2417C086E192E0B7014B8188
:1012A0005C81960109811A810E94E80E8B819C81E4
:1012B000860D971D9C838B83EB81FC81E415F505DE
:1012C0005CF3E60CF71CE214F3041CF41C821B8292
:1012D000F3CF0E9462259B01AC01281939094A0904
:1012E0005B09B901CA010F900F900F900F90CF9139
:1012F000DF911F910F91FF90EF90DF90CF90BF9003
:10130000AF909F908F907F906F905F904F903F90A5
:101310002F9008952F923F924F925F926F927F92FB
:101320008F929F92AF92BF92CF92DF92EF92FF92F5
:101330000F931F93DF93CF93CDB7DEB72A970FB6E6
:10134000F894DEBF0FBECDBF182F7E836D8386E17C
:1013500092E00E9498179C838B8386E192E00E9422
:101360009C179A838983A12EBB2486E192E060E0DA
:1013700070E00E9407210E9462252B013C0175014B
:10138000EE0CFF1CCC24DD24150195012E193F091C
:1013900038872F831FC086E192E0B40195010D814B
:1013A0001E810E94261249855A85420D531D89854A
:1013B0009A858E0D9F1D9A8789878F819885E985EB
:1013C000FA858E0F9F1F29813A81821793071CF39C
:1013D000CE0CDF1C4601820C931C8B819C818816ED
:1013E00099061CF41A861986DECF0E9462259B019D
:1013F000AC012419350946095709B901CA012A96D1
:101400000FB6F894DEBF0FBECDBFCF91DF911F9115
:101410000F91FF90EF90DF90CF90BF90AF909F9093
:101420008F907F906F905F904F903F902F90089596
:101430002F923F924F925F926F927F928F929F92E4
:10144000AF92BF92CF92DF92EF92FF920F931F93D2
:10145000DF93CF93CDB7DEB72A970FB6F894DEBFF0
:101460000FBECDBF9E838D8378876F8386E192E028
:101470000E94981762E070E00E944E31CB01019704
:101480009C838B8386E192E00E949C1762E070E06F
:101490000E944E31FB013197FA83E98386E192E0A5
:1014A00060E070E00E94072186E192E00E949817B8
:1014B0008C0186E192E00E949C170817190754F4EA
:1014C00086E192E00E9498179A8789872224332424
:1014D00021013AC086E192E00E949C17F5CF098570
:1014E0001A85159507950E9462255B016C018B801A
:1014F0009C80801A910A69807A80601A710A86E15C
:1015000092E0B401A30129853A858901ED80FE802E
:101510000E945A210E9462256A197B098C099D0943
:10152000260E371E481E591E86E192E0B401A30123
:1015300029853A858901EF80F8840E940613898500
:101540009A8506979A878987E985FA851E161F0668
:1015500034F2B101C2012A960FB6F894DEBF0FBE75
:10156000CDBFCF91DF911F910F91FF90EF90DF9052
:10157000CF90BF90AF909F908F907F906F905F9033
:101580004F903F902F9008952F923F924F925F92ED
:101590006F927F928F929F92AF92BF92CF92DF9283
:1015A000EF92FF920F931F93CF93DF931C0186E17D
:1015B00092E00E94981762E070E00E944E315B0159
:1015C00086E192E00E949C1762E070E00E944E313A
:1015D0006B0186E192E060E070E00E94072186E105
:1015E00092E00E9498178C0186E192E00E949C177D
:1015F000081719072CF486E192E00E94981704C09E
:1016000086E192E00E949C172C010E9462253B011A
:101610004C01C2E0D0E011C0CE0195958795B5018F
:10162000681B790BA601481B590B86E192E09E01CD
:101630008E0171010E9406132696C415D50564F328
:101640000E9462259B01AC012619370948095909F6
:10165000B901CA01DF91CF911F910F91FF90EF90D7
:10166000DF90CF90BF90AF909F908F907F906F90C2
:101670005F904F903F902F9008954F925F926F929E
:101680007F928F929F92AF92BF92CF92DF92EF9212
:10169000FF920F931F93CF93DF933C012B0186E1C1
:1016A00092E00E9498174C0186E192E00E949C17FC
:1016B0005C0186E192E060E070E00E9407210E94F8
:1016C00062256B017C01C0E0D0E00AC086E192E0B7
:1016D00060E070E0AE01940183010E9447222596EC
:1016E000CA15DB059CF3C0E0D0E00AC086E192E0B9
:1016F000BE0140E050E0950182010E94E62125965E
:10170000C815D9059CF30E9462259B01AC012C19D8
:101710003D094E095F09B901CA01DF91CF911F91BF
:101720000F91FF90EF90DF90CF90BF90AF909F9080
:101730008F907F906F905F904F9008952F923F927F
:101740004F925F926F927F928F929F92AF92BF92D1
:10175000CF92DF92EF92FF920F931F93DF93CF937D
:1017600000D000D0CDB7DEB76C0186E192E00E94D8
:1017700098171C0186E192E00E949C179A83898346
:1017800086E192E060E070E00E94072149805A8083
:101790000894410851080E946225AA24BB240FC066
:1017A00086E192E060E070E040E050E09501820167
:1017B00076010E945A1286E090E0A80EB91EA2148B
:1017C000B30474F33101089461087108AA24BB249E
:1017D0000FC086E192E060E070E040E050E09301ED
:1017E000850176010E945A12E6E0F0E0AE0EBF1EBF
:1017F00089819A81A816B90664F30E94622586E160
:1018000092E060E070E00E9407210E946225AA2415
:10181000BB240EC086E192E0B30140E050E09501A8
:10182000820176010E945A12E6E0F0E0AE0EBF1E81
:10183000A214B3047CF3AA24BB240FC086E192E077
:10184000B30140E050E020E030E0850176010E94E5
:101850005A1286E090E0A80EB91EE981FA81AE1610
:10186000BF0664F30E94622586E192E060E070E0CA
:101870000E9407210E946225AA24BB240FC086E192
:1018800092E060E070E0A201950100E010E07601D6
:101890000E945A1286E090E0A80EB91EA214B3046A
:1018A00074F3AA24BB240EC086E192E060E070E0ED
:1018B000A2019301850176010E945A12E6E0F0E050
:1018C000AE0EBF1E89819A81A816B9066CF30E94DC
:1018D000622586E192E060E070E00E9407210E94AC
:1018E00062254B015C011C821B8210C086E192E0E4
:1018F000B301A2012B813C8100E010E076010E943F
:101900005A12EB81FC813696FC83EB838B819C81A0
:10191000821593055CF3222433240EC086E192E005
:10192000B301A20120E030E0810176010E945A1249
:10193000E6E0F0E02E0E3F1E89819A8128163906D6
:101940006CF30E9462259B01AC01281939094A09F0
:101950005B09B901CA010F900F900F900F90CF91C2
:10196000DF911F910F91FF90EF90DF90CF90BF908C
:10197000AF909F908F907F906F905F904F903F902F
:101980002F900895CF92DF92EF92FF920F931F93C3
:1019900006E112E0C80160E070E00E9407210E94A9
:1019A00062256B017C01C80160E070E040E050E01E
:1019B0000E946717C8016FEF7FEF0E947317C8017D
:1019C00061E00E946D17C80160E071E00E94732A17
:1019D000C80160EE7FEF0E947317C80162E00E94A9
:1019E0006D17C8014CEE51E56AE974E422E030E07D
:1019F0000E94602AC80160E078EF0E947317C80156
:101A000063E00E946D17C8014FEE5EEB6DEA7EED5C
:101A100020E130E00E940B29C8010E945C28C80127
:101A200060EE77E00E947317C80165E00E946D17B1
:101A3000C8016DE071E00E94732AC80162E00E9453
:101A40006D17C80163E171E00E94732AC80161E06B
:101A50000E946D17C80163E271E00E94732AC801F9
:101A60006EE371E00E94732AC80169E571E00E948B
:101A7000732AC80165E771E00E94732AC80169E80A
:101A800071E00E94732AC8016CE971E00E94732A18
:101A9000C80166EB71E00E94732A0E9462259B01D7
:101AA000AC012C193D094E095F09B901CA011F910A
:101AB0000F91FF90EF90DF90CF9008951F9310E06B
:101AC00086E192E0612F0E942C230E94C20C60EDFF
:101AD00077E080E090E00E9488251F5F143081F756
:101AE0001F910895CF93DF938CE892E060E875E250
:101AF0000E94012785EC93E00E94590687E993E054
:101B00000E94590686E192E00E947F2386E192E0DE
:101B10000E94A922EC0183E9C532D80719F48EE7A7
:101B200093E00EC083E9C832D80719F485E693E044
:101B300007C085E7C537D80709F00CC18CE493E0EE
:101B40000E94590686E192E0BE010E94E9238AEED6
:101B500091E00E94590680ED91E00E9449060E94A2
:101B60006006AB01BC018CE892E02AE030E00E9404
:101B70000B2964EF71E080E090E00E94882586EBFD
:101B800091E00E9449060E94C20CAB01BC018CE8A6
:101B900092E02AE030E00E940B2968EB7BE080E0D5
:101BA00090E00E9488258CE991E00E9449068FEF21
:101BB00097E00E949E0BAB01BC018CE892E02AE00A
:101BC00030E00E940B2964EF71E080E090E00E9419
:101BD000882582E891E00E94490680E098EF6FE155
:101BE00070E00E943D0BAB01BC018CE892E02AE062
:101BF00030E00E940B2964EF71E080E090E00E94E9
:101C0000882588E691E00E94490680EE97E00E94D0
:101C1000C40AAB01BC018CE892E02AE030E00E94EB
:101C20000B2964EF71E080E090E00E9488258EE44B
:101C300091E00E94490680EE9FEF6FE178EF0E94ED
:101C4000180AAB01BC018CE892E02AE030E00E9467
:101C50000B2964EF71E080E090E00E94882584E326
:101C600091E00E9449068AE06FE178EF0E948A09BC
:101C7000AB01BC018CE892E02AE030E00E940B2925
:101C80008AE191E00E9449068AE06FEF7FEF0E94AF
:101C90001A09AB01BC018CE892E02AE030E00E9416
:101CA0000B2964EF71E080E090E00E94882580E0DD
:101CB00091E00E9449060E947908AB01BC018CE8C2
:101CC00092E02AE030E00E940B2964EF71E080E0AE
:101CD00090E00E94882586EE90E00E9449060E94CE
:101CE000A607AB01BC018CE892E02AE030E00E943C
:101CF0000B2964EF71E080E090E00E9488258CEC75
:101D000090E00E9449060E941B07AB01BC018CE8D1
:101D100092E02AE030E00E940B2964EF71E080E05D
:101D200090E00E94882582EB90E00E9449060E9484
:101D30009606AB01BC018CE892E02AE030E00E94FC
:101D40000B2964EF71E080E090E00E9488258CEA26
:101D500090E021C082E393E00E9449068CE892E083
:101D6000BE0140E150E00E941F2989EF92E00E94ED
:101D7000590684ED92E00E9459068EE992E00E9495
:101D8000590686E692E00E9459068DE292E00E9492
:101D9000590687E192E00E945906DF91CF9108959C
:101DA000FC017583648371876087578346835387FB
:101DB0004287158A158614861786168621E0248B9D
:101DC0008FEF9FEF938B828B918B808B268B089567
:101DD0002F923F924F925F926F927F928F929F923B
:101DE000AF92BF92CF92DF92EF92FF920F931F9329
:101DF000DF93CF93CDB7DEB728970FB6F894DEBF49
:101E00000FBECDBF98878F831B012A01790158012E
:101E100021E030E02E193F093E832D83C701880F52
:101E2000991FAA27BB27A81BB90BBA83A983AF8127
:101E3000B885ED91FC911197A701440D551D0480C3
:101E4000F581E02DCD0198010995AF81B885ED911F
:101E5000FC911197A2014E195F090480F581E02DD4
:101E6000CD01B10198010995AF81B885ED91FC9143
:101E70001197B701620D731D0480F581E02DCD012E
:101E8000A20198010995AF81B885ED91FC91119758
:101E9000B1016E197F090480F581E02DCD01A20109
:101EA000980109953701E1E0F0E0FC83EB83882499
:101EB00099249EC02D813E8137FD0CC00894610895
:101EC000710889819A8102969A838983280F391F24
:101ED0003E832D830894811C911CAB81BC8112969A
:101EE000BC83AB83ED81FE81EA0FFB1FFE83ED8394
:101EF0006401C20CD31C8301040D151DAF81B8858C
:101F0000ED91FC9111970480F581E02DCD01B60192
:101F1000A801950109957101E818F908AF81B88504
:101F2000ED91FC9111970480F581E02DCD01B70171
:101F3000A80195010995820106191709AF81B88595
:101F4000ED91FC9111970480F581E02DCD01B60152
:101F5000A80195010995AF81B885ED91FC91119784
:101F60000480F581E02DCD01B701A8019501099507
:101F70006301C20CD31C8401040D151DAF81B8850B
:101F8000ED91FC9111970480F581E02DCD01B60112
:101F9000A801950109957101E618F708AF81B88588
:101FA000ED91FC9111970480F581E02DCD01B701F1
:101FB000A80195010995820108191909AF81B88511
:101FC000ED91FC9111970480F581E02DCD01B601D2
:101FD000A80195010995AF81B885ED91FC91119704
:101FE0000480F581E02DCD01B701A8019501099587
:101FF000861497040CF45ECF28960FB6F894DEBFD3
:102000000FBECDBFCF91DF911F910F91FF90EF9049
:10201000DF90CF90BF90AF909F908F907F906F9008
:102020005F904F903F902F9008952F923F924F9244
:102030005F926F927F928F929F92AF92BF92CF9258
:10204000DF92EF92FF920F931F93DF93CF93CDB761
:10205000DEB762970FB6F894DEBF0FBECDBF9A8B86
:10206000898B3B014A01670151E0A52EB12CA21AD0
:10207000B30AC901880F991F44275527481B590BDC
:1020800058874F83C40101979C838B83DB01119791
:10209000BA83A98314010894211C311C2B010894D4
:1020A000411C511C7901E1E0F0E0FA87E9871E82CA
:1020B0001D8210E0A801447050705C874B87C801F6
:1020C000827090709E878D87D801A870B070B88B91
:1020D000AF8701701070B7C0B7FC0AC00894E10860
:1020E000F108EF81F8853296F887EF83AE0EBF1EB8
:1020F0004D815E814F5F5F4F5E834D8389859A85F9
:1021000002969A878987AB85BC85AB2BF1F0A989AC
:10211000BA89ED91FC911197A701480D591D0480D2
:10212000F581E02DCD01B20196010995A989BA8901
:10213000ED91FC911197B701660D771D0480F58133
:10214000E02DCD01A10196010995ED85FE85EF2BCE
:10215000F9F0A989BA89ED91FC911197A4014E1962
:102160005F090480F581E02DCD01B201960109954A
:10217000A989BA89ED91FC911197B701660D771D78
:102180000480F581E02DCD014B815C81960109959C
:10219000EF85F889EF2BF9F0A989BA89ED91FC91C7
:1021A0001197B3016E197F090480F581E02DCD01EF
:1021B000A10196010995A989BA89ED91FC91119720
:1021C000A701480D591D0480F581E02DCD016981DD
:1021D0007A81960109950115110501F1A989BA893C
:1021E000ED91FC911197B3016E197F090480F5817F
:1021F000E02DCD014B815C8196010995A989BA89B1
:10220000ED91FC911197A4014E195F090480F581AD
:10221000E02DCD0169817A8196010995E985FA85DC
:10222000AE0EBF1E4B815C81415050405C834B839E
:1022300089819A8101979A8389830894211C311C92
:102240000894411C511CAD81BE81AE15BF050CF434
:1022500043CF62960FB6F894DEBF0FBECDBFCF91CD
:10226000DF911F910F91FF90EF90DF90CF90BF9083
:10227000AF909F908F907F906F905F904F903F9026
:102280002F9008952F923F924F925F926F927F927C
:102290008F929F92AF92BF92CF92DF92EF92FF9276
:1022A0000F931F93DF93CF93CDB7DEB72E970FB663
:1022B000F894DEBF0FBECDBF9E878D871B015E8366
:1022C0004D83A701260171E0C72ED12CC21AD30A73
:1022D000C901880F991F66277727681B790B7A83B6
:1022E00069836D807E8008946108710883E0882E80
:1022F000912C8E0C9F1C7901AA24BB2481E090E0D4
:102300009C838B8310E0D801A170B070B887AF8335
:10231000FA013196FA87E987B801627070707C879C
:102320006B8777C0D7FC0AC00894E108F10889815F
:102330009A8102969A838983C80ED91E0894A11C9B
:10234000B11CAB81BC811296BC83AB83EF81F88555
:10235000EF2B41F1AD85BE85ED91FC911197B50153
:10236000620D731D4D815E814E195F099701220F29
:10237000331F89859A85280F391F0284F385E02D44
:10238000CD0182010995AD85BE85ED91FC91119736
:10239000B701620D731D0284F385E02DCD01A30109
:1023A00094010995EB85FC85EF2B41F1AD85BE8548
:1023B000ED91FC911197B1016A197B094D815E8104
:1023C0004E195F099701220F331F89859A85280FBF
:1023D000391F0284F385E02DCD0182010995AD8579
:1023E000BE85ED91FC911197B1016E197F090284B0
:1023F000F385E02DCD01A30194010995EB81FC81CA
:10240000CE0EDF1E08946108710862E070E0860E4F
:10241000971EAE14BF040CF485CF2E960FB6F89419
:10242000DEBF0FBECDBFCF91DF911F910F91FF9007
:10243000EF90DF90CF90BF90AF909F908F907F9064
:102440006F905F904F903F902F9008956F927F9282
:102450008F929F92AF92BF92CF92DF92EF92FF92B4
:102460000F931F937C014B013A0159016801DC0174
:10247000ED91FC91421B530B220F331F2F5F3F4FF7
:102480000284F385E02D0995C701B401A3019501EC
:1024900003E0EE24FF240E9442111F910F91FF9050
:1024A000EF90DF90CF90BF90AF909F908F907F90F4
:1024B0006F9008952F923F924F925F926F927F920A
:1024C0008F929F92AF92BF92CF92DF92EF92FF9244
:1024D0000F931F93DF93CF9300D000D0CDB7DEB71B
:1024E0003C017C836B836A015901FA82E9822224D0
:1024F00033249801241B350B37FF03C030952195F9
:102500003F4FC5014B815C81841B950B97FF03C036
:10251000909581959F4F821793075CF481E0282E58
:10252000312CC601CB80DC809C838B83C801850164
:102530005C018B819C81A816B90644F4C501AB806F
:10254000BC809C838B83C80186016C012501AB8113
:10255000BC814A1A5B0A7801EC18FD08F7FE04C03A
:10256000F094E194F108F394C016D10624F0882485
:102570008A94982C03C0B1E08B2E912CC20162E0AA
:1025800070E00E944E318B0125C0D301ED91FC918A
:102590002114310441F00480F581E02DC301B6011E
:1025A0004B815C8107C00480F581E02DC3016B8104
:1025B0007C81A60129813A8109950E191F0917FF0F
:1025C00004C0C80CD91C040D151DEB81FC8131968B
:1025D000FC83EB834B815C81A416B506B4F60F90A7
:1025E0000F900F900F90CF91DF911F910F91FF905F
:1025F000EF90DF90CF90BF90AF909F908F907F90A3
:102600006F905F904F903F902F9008954F925F9200
:102610006F927F928F929F92AF92BF92CF92DF92F2
:10262000EF92FF920F931F936C015B014A013901F6
:102630002801DC01ED91FC910484F585E02D8701F2
:102640000995D601ED91FC91A40141505040440DF3
:10265000551D0484F585E02DC601B501930109954A
:10266000D601ED91FC910284F385E02DC601B50100
:10267000A40192010995D601ED91FC910894A1085D
:10268000B108A60CB71C0284F385E02DC601B50184
:10269000A401920109951F910F91FF90EF90DF9097
:1026A000CF90BF90AF909F908F907F906F905F90F2
:1026B0004F9008952F923F924F925F926F927F9228
:1026C0008F929F92AF92BF92CF92DF92EF92FF9242
:1026D0000F931F93DF93CF93CDB7DEB728970FB635
:1026E000F894DEBF0FBECDBF5C0178876F831A01FF
:1026F00049011E830D832701CB018E0D9F1D9C83F5
:102700008B83EE0CFF1CF094E194F108F394D70155
:10271000A20FB31FBA83A983D501ED91FC91048464
:10272000F585E02DC5016B817C8129813A81860187
:1027300009956D807E80620C731C08946108710895
:10274000D501ED91FC910484F585E02DC5016B81E7
:102750007C81A30129813A810995240C351CED81E6
:10276000FE81EE0EFF1ED501ED91FC910284F385F2
:10277000E02DC5016F817885A10197010995EF8151
:10278000F8858E0E9F1E089481089108D501ED9161
:10279000FC910284F385E02DC501B401A1019701EC
:1027A0000995C5016B817C81A101920101E076014F
:1027B0000E94151084189508C501B401A101920169
:1027C00002E00E94151064187508C501B401A30148
:1027D000920104E00E941510C5016B817C81A30168
:1027E000920108E00E94151028960FB6F894DEBFFB
:1027F0000FBECDBFCF91DF911F910F91FF90EF9052
:10280000DF90CF90BF90AF909F908F907F906F9010
:102810005F904F903F902F9008952F923F924F924C
:102820005F926F927F928F929F92AF92BF92CF9260
:10283000DF92EF92FF920F931F93DF93CF9300D01D
:1028400000D000D0CDB7DEB72C015B015E834D8395
:102850003C832B83480137011601C701860F971F60
:102860009A8389836701CC0CDD1CD094C194D10874
:10287000D394D201ED91FC912C0D3D1D0088F1897E
:10288000E02DC20169817A8171010995ED81FE8196
:10289000E60DF71DFE83ED830894810891088C0CEA
:1028A0009D1C0894A108B1088B819C81A80EB91EBB
:1028B000A618B708C201B501AF01930101E0740188
:1028C00061010E944211C20169817A814D815E815C
:1028D000930102E00E94421126960FB6F894DEBFE3
:1028E0000FBECDBFCF91DF911F910F91FF90EF9061
:1028F000DF90CF90BF90AF909F908F907F906F9020
:102900005F904F903F902F9008952F923F924F925B
:102910005F926F927F928F929F92AF92BF92CF926F
:10292000DF92EF92FF920F931F93DF93CF9300D02C
:1029300000D0CDB7DEB74C017C836B835A834983CB
:10294000390128011701DC01ED91FC910084F1852A
:10295000E02D75010995D401ED91FC910084F1857C
:10296000E02DC401B301A201910186010995D401B2
:10297000ED91FC910084F185E02DC401B101A60127
:102980002B813C8109811A8109950F900F900F903E
:102990000F90CF91DF911F910F91FF90EF90DF90FB
:1029A000CF90BF90AF909F908F907F906F905F90EF
:1029B0004F903F902F9008952F923F924F925F92A9
:1029C0006F927F928F929F92AF92BF92CF92DF923F
:1029D000EF92FF920F931F93DF93CF93CDB7DEB7A4
:1029E00066970FB6F894DEBF0FBECDBF988B8F876A
:1029F0002B013A0149011C8B0B8B1601BA8AA98A5B
:102A0000041715072CF438015C8B4B8B4B01290103
:102A10002B893C89221633063CF4C10119019C8B99
:102A20008B8BC40147017C014B895C894615570596
:102A30003CF4C3013A019C8B8B8BC40142012C01F5
:102A40006214730449F5841495041CF4B4019201D2
:102A500008C0481459041CF4B201940102C0B20128
:102A60009201E616F70614F4B70104C02E153F05CF
:102A70000CF49701AF85B889ED91FC9111972F5F08
:102A80003F4F261B370B0484F585E02DCD01A301B4
:102A900009891A890995BEC0F401E419F509FC8772
:102AA000EB872B893C89261937093A872987A701A3
:102AB0004419550958874F83C101861997099E8388
:102AC0008D83D701A819B909BC83AB83F1012B8988
:102AD0003C89E21BF30BFA83E9832215330519F4D1
:102AE0003E872D8706C04B895C89415050405E87E8
:102AF0004D877301AA24BB24CC24DD2434C0C50136
:102B000069857A850E944E319B01240D351DC601D1
:102B10006D817E810E944E31DB01A40DB51DA2178F
:102B2000B3071CF4CD01D9019C018B859C85A80EAF
:102B3000B91EEF81F885CE0EDF1EEF85F889808102
:102B400091811196A21BB30BFC010484F585E02D45
:102B50008F859889B901A7019D0109891A8909956D
:102B60000894E11CF11C2D853E852E153F053CF691
:102B7000C7014B895C89841B950BAB81BC818A9F03
:102B800060018B9FD00C9A9FD00C1124C70186192D
:102B90009709EF81F8858E9F30018F9F700C9E9F63
:102BA000700C112434C0C60169817A810E944E31B3
:102BB0009B01280D391DC3016D817E810E944E311C
:102BC000DB01A40DB51DA217B3071CF4CD01D9017B
:102BD0009C014B815C81C40ED51E8F819885680E47
:102BE000791EEF85F889808191811196A21BB30B24
:102BF000FC01A484B5848F859889B901A7019D0142
:102C000009891A89F50109950894E11CF11C2E1413
:102C10003F044CF666960FB6F894DEBF0FBECDBFEC
:102C2000CF91DF911F910F91FF90EF90DF90CF90A8
:102C3000BF90AF909F908F907F906F905F904F90DC
:102C40003F902F9008952F923F924F925F926F92F4
:102C50007F928F929F92AF92BF92CF92DF92EF922C
:102C6000FF920F931F93DF93CF93CDB7DEB72F97CC
:102C70000FB6F894DEBF0FBECDBF5C015E834D83FF
:102C800018870F83FA86E986CB86DC0118968D912A
:102C90009C911997681779070CF0A4C01A968D912A
:102CA0009C911B97481759070CF09CC0EC2DF0E045
:102CB000FF87EE87CF01880F991F880F991F8E0F0E
:102CC0009F1F860F971F181619060CF08BC0CF0197
:102CD000F3E0880F991FFA95E1F7840F951F1816F6
:102CE00019060CF07FC085E0289FA00111245A83AB
:102CF00049832B011B011C825C81553011F480E05B
:102D000005C0E981FA81EE52FC4F84912C863D8604
:102D10006D807E8043011B82C82EDD2480FF1CC095
:102D2000D501ED91FC91BB85B13049F40480F5816A
:102D3000E02DC501B201A3012F81388522C0008892
:102D4000F189E02DC5016C857D85A4012E853F8527
:102D50008901EF80F88423C0E985FA852F813885C1
:102D6000E217F307E9F0D501ED91FC91BB85B13095
:102D700051F40480F581E02DC501B201A30129853C
:102D80003A8509950DC00088F189E02DC5016C8553
:102D90007D85A4012E853F858901E984FA84099502
:102DA000EB81EF5FEB832E853F85820E931E0894A7
:102DB000611C711CE83021F0D594C7948C2DACCFE8
:102DC0003C813F5F3C834E855F85240E351E089411
:102DD000411C511C89819A8101969A8389833630DE
:102DE00009F08ACF2F960FB6F894DEBF0FBECDBF85
:102DF000CF91DF911F910F91FF90EF90DF90CF90D7
:102E0000BF90AF909F908F907F906F905F904F900A
:102E10003F902F900895CF92EF92FF920F931F93C0
:102E2000CF93DF93EC01262F6A3061F42C8930E0D8
:102E300013E0220F331F1A95E1F78E859F85820FCD
:102E4000931F37C06D30C9F16C857D854E855F85D8
:102E500008891989EA88FB88CC880E9423162C8966
:102E600086E0289FB00111248C859D85680F791F0D
:102E70007D876C878E89882301F1422F50E08AEF8D
:102E80009FEF9C01429FC001439F900D529F900D68
:102E9000112428853985820F931F861797076CF4B4
:102EA000B3E0440F551FBA95E1F78E859F85840FD7
:102EB000951F9F878E871D861C8681E090E0DF919D
:102EC000CF911F910F91FF90EF90CF900895FC014B
:102ED00075876487578746870895FC01662309F440
:102EE00061E0648B0895FC01718B608B738B628B46
:102EF0000895FC016370658B613081F0613028F0CA
:102F0000623019F0633091F409C084819581918712
:102F100080878681978193878287089586819781AC
:102F2000918780878481958193878287089508950A
:102F3000FC01808591850895FC0182859385089523
:102F4000FC016E9A8AB183698AB93E9A84B1806322
:102F500084B9158A158614861786168681E0848BB7
:102F60008FEF9FEF918B808B80EF90E09187808730
:102F700080E491E09387828708952F923F924F9249
:102F80005F926F927F928F929F92AF92BF92CF92F9
:102F9000DF92EF92FF920F931F93DF93CF9300D0B6
:102FA00000D0CDB7DEB79C838B83162F69017A01E1
:102FB000DC015896ED91FC915997808194969C91F3
:102FC0009497892380835A96ED91FC915B97808139
:102FD00095969C9195978923808357968C915797C6
:102FE0008823D9F476988BB18C768BB9469885B1C5
:102FF0008F7C85B95C96ED91FC915D97808196966A
:103000009C919697892380835C96ED91FC915D97C6
:10301000808192969C91892B808376988BB18C7657
:103020008BB9469A85B18F7C806285B9AB81BC81B2
:103030005C96ED91FC915D97808196969C91969718
:10304000892380835C96ED91FC915D9780819296B7
:103050009C919297892B80835A96ED91FC915B9776
:10306000808191969C91892B80838EB1472F50E06F
:10307000372F3695B32FB074BA838F7B8B2B8EB9D5
:103080002BB1672F660FE62FE078E983CA018870BD
:103090009070B3E095958795BA95E1F7282EA2E058
:1030A0003A2E3322F0E14F2E47222C7624292E2B64
:1030B000282B23292BB988B130E4532E56228F7B3D
:1030C000852988B985B143705070642E629420EFD1
:1030D00062228F7C862985B9AB81BC815C96ED919B
:1030E000FC915D97808196969C9196978923808329
:1030F0005C96ED91FC915D97808192969C91929760
:10310000892B80838EB1412F50E0312F369590E48A
:10311000792E73228F7B87298EB92BB1612F660F91
:1031200080E8882E8622CA018870907003E0959509
:1031300087950A95E1F7982EF2E0AF2EA322E0E101
:10314000BE2EB1222C762B292829282B2A292BB9EF
:1031500088B1062F00748F7B802B88B985B14370AE
:103160005070642F6295607F8F7C862B85B95C964A
:10317000ED91FC915D97808196969C91969789231D
:1031800080835C96ED91FC915D97808192969C91F5
:10319000892B8083A7019601215030404040504048
:1031A000DA01C90136E0B695A795979587953A95C6
:1031B000D1F7DC01711709F05DC2C5C060E1EB8198
:1031C000FC81048D158DF8018081EB81FC8196A135
:1031D0008923F8018083EB81FC81048D158DF80132
:1031E0008081EB81FC8192A1892BF8018083EB81A6
:1031F000FC81048D158DF8018081EB81FC8196A105
:103200008923F8018083EB81FC81048D158DF80101
:103210008081EB81FC8192A1892BF8018083EB8175
:10322000FC81048D158DF8018081EB81FC8196A1D4
:103230008923F8018083EB81FC81048D158DF801D1
:103240008081EB81FC8192A1892BF8018083EB8145
:10325000FC81048D158DF8018081EB81FC8196A1A4
:103260008923F8018083EB81FC81048D158DF801A1
:103270008081EB81FC8192A1892BF8018083EB8115
:10328000FC81048D158DF8018081EB81FC8196A174
:103290008923F8018083EB81FC81048D158DF80171
:1032A0008081EB81FC8192A1892BF8018083EB81E5
:1032B000FC81048D158DF8018081EB81FC8196A144
:1032C0008923F8018083EB81FC81048D158DF80141
:1032D0008081EB81FC8192A1892BF8018083EB81B5
:1032E000FC81048D158DF8018081EB81FC8196A114
:1032F0008923F8018083EB81FC81048D158DF80111
:103300008081EB81FC8192A1892BF8018083EB8184
:10331000FC81048D158DF8018081EB81FC8196A1E3
:103320008923F8018083EB81FC81048D158DF801E0
:103330008081EB81FC8192A1892BF801808361500F
:1033400009F03DCF1197109709F038CF2F732AC09D
:10335000AB81BC815C96ED91FC915D9780819696E6
:103360009C919697892380835C96ED91FC915D9763
:10337000808192969C919297892B80835C96ED91A7
:10338000FC915D97808196969C9196978923808386
:103390005C96ED91FC915D97808192969C91892B32
:1033A000808321502223A1F6BFC170E18EB18F7BB3
:1033B000EA818E2B8EB98BB18C768429F9818F2B83
:1033C000822983298BB988B18F7B852988B985B1FA
:1033D0008F7C862985B9EB81FC81E48CF58CF70123
:1033E0008081EB81FC8196A18923F7018083EB81A9
:1033F000FC81E48CF58CF7018081EB81FC8192A14A
:10340000892BF70180838EB18F7B87298EB98BB191
:103410008C768B29882989298A298BB988B18F7B59
:10342000802B88B985B18F7C862B85B9EB81FC8197
:10343000E48CF58CF7018081EB81FC8196A18923D6
:10344000F7018083EB81FC81E48CF58CF7018081AE
:10345000EB81FC8192A1892BF70180838EB18F7B58
:10346000FA818F2B8EB98BB18C7684299981892B27
:10347000822983298BB988B18F7B852988B985B149
:103480008F7C862985B9EB81FC81E48CF58CF70172
:103490008081EB81FC8196A18923F7018083EB81F8
:1034A000FC81E48CF58CF7018081EB81FC8192A199
:1034B000892BF70180838EB18F7B87298EB98BB1E1
:1034C0008C768B29882989298A298BB988B18F7BA9
:1034D000802B88B985B18F7C862B85B9EB81FC81E7
:1034E000E48CF58CF7018081EB81FC8196A1892326
:1034F000F7018083EB81FC81E48CF58CF7018081FE
:10350000EB81FC8192A1892BF70180838EB18F7BA7
:10351000FA818F2B8EB98BB18C7684299981892B76
:10352000822983298BB988B18F7B852988B985B198
:103530008F7C862985B9EB81FC81E48CF58CF701C1
:103540008081EB81FC8196A18923F7018083EB8147
:10355000FC81E48CF58CF7018081EB81FC8192A1E8
:10356000892BF70180838EB18F7B87298EB98BB130
:103570008C768B29882989298A298BB988B18F7BF8
:10358000802B88B985B18F7C862B85B9EB81FC8136
:10359000E48CF58CF7018081EB81FC8196A1892375
:1035A000F7018083EB81FC81E48CF58CF70180814D
:1035B000EB81FC8192A1892BF70180838EB18F7BF7
:1035C000FA818F2B8EB98BB18C7684299981892BC6
:1035D000822983298BB988B18F7B852988B985B1E8
:1035E0008F7C862985B9EB81FC81E48CF58CF70111
:1035F0008081EB81FC8196A18923F7018083EB8197
:10360000FC81E48CF58CF7018081EB81FC8192A137
:10361000892BF70180838EB18F7B87298EB98BB17F
:103620008C768B29882989298A298BB988B18F7B47
:10363000802B88B985B18F7C862B85B9EB81FC8185
:10364000E48CF58CF7018081EB81FC8196A18923C4
:10365000F7018083EB81FC81E48CF58CF70180819C
:10366000EB81FC8192A1892BF7018083715009F0D5
:103670009DCE1197109709F098CE2F7352C08EB13E
:103680008F7BFA818F2B8EB98BB18C7684299981AF
:10369000892B822983298BB988B18F7B852988B9A9
:1036A00085B18F7C862985B9AB81BC815C96ED9113
:1036B000FC915D97808196969C9196978923808353
:1036C0005C96ED91FC915D97808192969C9192978A
:1036D000892B80838EB18F7B87298EB98BB18C76B5
:1036E0008B29882989298A298BB988B18F7B802BDE
:1036F00088B985B18F7C862B85B95C96ED91FC915C
:103700005D97808196969C919697892380835C969D
:10371000ED91FC915D97808192969C91892B80839D
:103720002150222309F0ABCFAB81BC815896ED919B
:10373000FC915997808190969C91892B80830F9062
:103740000F900F900F90CF91DF911F910F91FF90ED
:10375000EF90DF90CF90BF90AF909F908F907F9031
:103760006F905F904F903F902F90089550E04C7F66
:10377000507083E0440F551F8A95E1F730E0B3E0C5
:1037800035952795BA95E1F7422B532B70E0687F6A
:103790007070762F6627462B572BCA0108950F931A
:1037A0001F93FC01A68DB78D8C9197A189238C93D3
:1037B000A68DB78D8C9193A1892B8C93ACB149B117
:1037C00006B1E9B189B123B169B190E0817090701F
:1037D00073E0880F991F7A95E1F730E0207330701D
:1037E00054E0359527955A95E1F7822B932B70E09D
:1037F00060717070862B972B50E042705070B0E073
:10380000A074B0704A2B5B2B440F551F842B952B53
:10381000F0E0E078F07010E000741070E02BF12B15
:10382000F595E7958E2B1F910F910895DC015A961F
:10383000ED91FC915B97808195969C91959789235A
:1038400080839EB1262F30E0762F7695872F807467
:103850009F7B892B8EB98BB1562F550F60718C765B
:10386000682B852F8078682BC90188709070E3E001
:1038700095958795EA95E1F7682B7270762B7BB961
:1038800088B150748F7B582B58B985B12370307034
:1038900094E0220F331F9A95E1F78F7C822B85B934
:1038A0005C96ED91FC915D97808196969C919697A0
:1038B000892380835C96ED91FC915D97808192963F
:1038C0009C919297892B80835A96ED91FC915B97FE
:1038D000808191969C919197892B80839EB1242F12
:1038E00030E0642F6695862F80749F7B892B8EB97C
:1038F0008BB1542F550F40718C76482B852F8078D3
:10390000482BC90188709070F3E095958795FA95DA
:10391000E1F7482B6270642B6BB988B150748F7BD0
:10392000582B58B985B123703070E4E0220F331F53
:10393000EA95E1F78F7C822B85B95C96ED91FC913D
:103940005D97808196969C919697892380835C965B
:10395000ED91FC915D97808192969C91892B80835B
:103960000895DC015A96ED91FC915B9780819596C4
:103970009C919597892380839EB1272F30E0F72F64
:10398000F6958F2F80749F7B892B8EB98BB1E72F93
:10399000EE0F70718C76782B8E2F8078782BC90182
:1039A000887090709595879595958795959587954D
:1039B000782BF270F72BFBB988B1E0748F7BE82B82
:1039C000E8B985B12370307094E0220F331F9A95C7
:1039D000E1F78F7C822B85B95C96ED91FC915D9728
:1039E000808196969C919697892380835C96ED9131
:1039F000FC915D97808192969C919297892B808310
:103A00009EB1262F30E0E62FE6958E2F80749F7BA7
:103A1000892B8EB98BB1762F770F60718C76682BDE
:103A2000872F8078682BC90188709070F3E0959596
:103A30008795FA95E1F7682BE270E62BEBB988B130
:103A400070748F7B782B78B985B12370307094E0D7
:103A5000220F331F9A95E1F78F7C822B85B95C96F4
:103A6000ED91FC915D97808196969C919697892324
:103A700080835C96ED91FC915D97808192969C91FC
:103A80009297892B80835A96ED91FC915B97808168
:103A900091969C919197892B80839EB1252F30E040
:103AA000752F7695872F80749F7B892B8EB98BB16C
:103AB000652F660F50718C76582B862F8078582B87
:103AC000C90188709070F3E095958795FA95E1F7B4
:103AD000582B7270752B7BB988B160748F7B682B03
:103AE00068B985B123703070E4E0220F331FEA9586
:103AF000E1F78F7C822B85B95C96ED91FC915D9707
:103B0000808196969C919697892380835C96ED910F
:103B1000FC915D97808192969C919297892B8083EE
:103B20009EB1242F30E0642F6695862F80749F7B92
:103B3000892B8EB98BB1542F550F40718C76482B41
:103B4000852F8078482BC9018870907073E0959517
:103B500087957A95E1F7482B6270642B6BB988B131
:103B600050748F7B582B58B985B123703070F4E0B6
:103B7000220F331FFA95E1F78F7C822B85B95C9673
:103B8000ED91FC915D97808196969C919697892303
:103B900080835C96ED91FC915D97808192969C91DB
:103BA000892B80830895DC015A96ED91FC915B97F7
:103BB000808195969C919597892380839EB1E62F6D
:103BC000F0E0762F7695872F80749F7B892B8EB9B6
:103BD0008BB1562F550F60718C76682B852F8078AE
:103BE000682BCF01887090709595879595958795EE
:103BF00095958795682B7270762B7BB988B1507438
:103C00008F7B582B58B985B1E370F07094E0EE0FBC
:103C1000FF1F9A95E1F78F7C8E2B85B95C96ED910D
:103C2000FC915D97808196969C91969789238083DD
:103C30005C96ED91FC915D97808192969C91929714
:103C4000892B80835A96ED91FC915B9780819196A8
:103C50009C919197892B80839EB1632F70E0E32F15
:103C6000E6958E2F80749F7B892B8EB98BB1532F55
:103C7000550F30718C76382B852F8078382BCB01FF
:103C800088709070F3E095958795FA95E1F7382B59
:103C9000E270E32BEBB988B150748F7B582B58B985
:103CA00085B16370707094E0660F771F9A95E1F7A5
:103CB0008F7C862B85B95C96ED91FC915D97808118
:103CC00096969C919697892380835C96ED91FC91C2
:103CD0005D97808192969C919297892B80835A96CA
:103CE000ED91FC915B97808195969C9195978923A6
:103CF00080839EB1642F70E0542F5695852F807479
:103D00009F7B892B8EB98BB1342F330F40718C760A
:103D1000482B832F8078482BCB0188709070F3E07C
:103D200095958795FA95E1F7482B5270542B5BB91E
:103D300088B130748F7B382B38B985B1637070705F
:103D4000E4E0660F771FEA95E1F78F7C862B85B953
:103D50005C96ED91FC915D97808196969C919697EB
:103D6000892380835C96ED91FC915D97808192968A
:103D70009C919297892B80835A96ED91FC915B9749
:103D8000808191969C919197892B80839EB1422F3F
:103D900050E0622F6695862F80749F7B892B8EB9A9
:103DA0008BB1322F330F20718C76282B832F8078A4
:103DB000282BCA018870907073E0959587957A9545
:103DC000E1F7282B6270622B6BB988B130748F7B5E
:103DD000382B38B985B14370507094E0440F551FAB
:103DE0009A95E1F78F7C842B85B95C96ED91FC91D7
:103DF0005D97808196969C919697892380835C96A7
:103E0000ED91FC915D97808192969C91892B8083A6
:103E10000895CF92DF92EF92FF920F931F93CF936B
:103E2000DF93EC018B017A01690177FD0BC157FD2E
:103E300009C188859985681779070CF003C18A85BF
:103E40009B85481759070CF0FDC0E88DF98D8081DE
:103E50009CA1892380838F898823A1F58D89823055
:103E600059F08330B1F08130D1F48FEE90E0841BB3
:103E7000950B7B018C0113C08FEE90E09C01261BFB
:103E8000370B89018FE391E09C01241B350B7901ED
:103E900006C08FE391E0861B970B8A017C01CE015F
:103EA00060E270E0A8010E94B11CCE0161E270E006
:103EB000A7010E94B11CCE0162E270E0A6010E943F
:103EC000B11CBAC0813009F0B7C08D89823041F091
:103ED000833041F0813011F440E605C040E003C07A
:103EE00040EC01C040EACE0166E10E94161CCE0102
:103EF00062E043E098010E94D31DCE0166E047E0F6
:103F000097010E94D31DEA8DFB8D80819DA189239D
:103F1000808376988BB18C768BB9469A85B18F7CED
:103F2000806285B9EC8DFD8D80819EA1892380837F
:103F3000EC8DFD8D80819AA1892B8083EA8DFB8D8C
:103F4000808199A1892B80839EB12D2D30E05D2D3C
:103F50005695852F80749F7B892B8EB98BB14D2D03
:103F6000440F90E1D9228C76D82A842F8078D82AE1
:103F7000C90188709070E3E095958795EA95E1F71F
:103F8000D82A52705D295BB988B140748F7B482B69
:103F900048B985B12370307074E0220F331F7A95D1
:103FA000E1F78F7C822B85B9EC8DFD8D80819EA100
:103FB00089238083EC8DFD8D80819AA1892B80835C
:103FC0009EB12C2D30E05C2D5695852F80749F7B03
:103FD000892B8EB98BB14C2D440F90E1C9228C7680
:103FE000C82A842F8078C82AC9018870907063E03D
:103FF000959587956A95E1F7C82A52705C295BB957
:1040000088B140748F7B482B48B985B123703070DC
:1040100094E0220F331F9A95E1F78F7C822B85B9AC
:10402000EC8DFD8D80819EA189238083EC8DFD8D9B
:1040300080819AA1892B8083E88DF98D808198A158
:10404000892B8083DF91CF911F910F91FF90EF908B
:10405000DF90CF9008950F931F938C01DC01589649
:10406000ED91FC915997808194969C919497892326
:10407000808318962D913C91199721503040C801AA
:1040800064E045E00E94D31DF8012285338521506C
:104090003040C80168E049E00E94D31DD80158961D
:1040A000ED91FC915997808190969C91892B80830A
:1040B0001F910F9108956F927F928F929F92AF926E
:1040C000BF92CF92DF92EF92FF920F931F93CF9305
:1040D000DF937C01DB016A0159014801EC01E88DA5
:1040E000F98D80819CA1892380838F89882309F0A1
:1040F0005BC08D898230A9F0833029F1813021F0B5
:10410000E9013B015A012BC08FEE90E0EC01C41B8A
:10411000D50B6B0189013E015B01DC01A819B909CE
:104120001EC02FEE30E0E901C61BD70B8FE391E0F4
:104130008C01041B150BD901AA19BB096C01C81805
:10414000D9083E010BC08FE391E08C01061B170BD1
:10415000DA01E4013A016C01C21AD30A5801C7011D
:1041600060E570E0AD010E94B11CC70161E570E03F
:10417000AE010E94B11CC70162E570E0A6010E9479
:10418000B11CC70163E570E0A8010E94B11CC70122
:1041900060E270E0A3010E94B11CC70161E270E01F
:1041A000A5010E94B11C1AC08130C1F4C70162E0B0
:1041B00043E09D010E94D31DC70166E047E09601E0
:1041C0000E94D31DC70164E045E095010E94D31D04
:1041D000C70168E049E098010E94D31DD7015896B5
:1041E000ED91FC915997808190969C91892B8083C9
:1041F000DF91CF911F910F91FF90EF90DF90CF90C3
:10420000BF90AF909F908F907F906F900895EF92A6
:10421000FF920F931F93CF93DF93EC017B018F8964
:10422000882341F58D89823061F0833069F08130D7
:1042300019F44FEE50E002C040E050E000E010E022
:1042400007C04FEE50E002C040E050E00FE311E045
:10425000E88DF98D80819CA189238083CE0160E265
:1042600070E00E94B11CCE0161E270E0A8010E94E2
:10427000B11C11C0813079F4288539852150304036
:104280000A851B8501501040CE0160E070E040E0DF
:1042900050E00E945B20CE01B70120E03CE241E00B
:1042A00050E00E94BD17DF91CF911F910F91FF90B9
:1042B000EF9008958F929F92AF92BF92CF92DF922C
:1042C000EF92FF920F931F93CF93DF93EC01D901ED
:1042D00058014701121613060CF06BC01016110698
:1042E0000CF067C088859985681779070CF061C064
:1042F000EA85FB854E175F070CF05BC06901C60EAF
:10430000D71E96012150304037FD53C07801E40E8E
:10431000F51E8701015010400AF047C04AC060E016
:1043200070E057FD02C0750102C040E050E0281760
:10433000390734F09C01215030406C01C61AD70A6D
:104340000E171F0734F08F01015010407F01E41A4F
:10435000F50ACE010E945B20B701882777FD809582
:10436000982F9601442737FD4095542F0E942F31F6
:104370009B01AC01CE01B4010E94BD178F89882337
:1043800081F428853985215030400A851B850150EC
:104390001040CE0160E070E040E050E00E945B2001
:1043A00008C0CE010E942B2004C077FDB8CF6D015C
:1043B000B8CFDF91CF911F910F91FF90EF90DF90D9
:1043C000CF90BF90AF909F908F900895CF92DF9243
:1043D000EF92FF920F931F93CF93DF93EC01FB01BA
:1043E0006801121613060CF049C077FD47C0888596
:1043F0009985681779070CF041C08A859B85481715
:104400005907E4F57901E40EF51E870101501040CB
:104410008AF534C040E050E00817190734F08C01E9
:10442000015010407C01E41AF50ACE01BF019F0142
:104430000E945B209701442737FD4095542FCE0101
:10444000B6010E94BD178F89882381F4288539859C
:10445000215030400A851B8501501040CE0160E09C
:1044600070E040E050E00E945B2008C0CE010E9456
:104470002B2004C057FDCECF7901CECFDF91CF9155
:104480001F910F91FF90EF90DF90CF900895CF9202
:10449000DF92EF92FF920F931F93CF93DF93EC0184
:1044A000FA01A9016801121613060CF049C0F7FDC4
:1044B00047C08A859B85E817F9070CF041C08885BD
:1044C000998568177907E4F57901E60EF71E9701DB
:1044D000215030408AF534C060E070E02817390779
:1044E00034F09C01215030407C01E61AF70ACE01DD
:1044F000AF018F010E945B209701442737FD409553
:10450000542FCE01B6010E94BD178F89882381F4F4
:1045100028853985215030400A851B85015010407F
:10452000CE0160E070E040E050E00E945B2008C0F7
:10453000CE010E942B2004C077FDCECF7A01CECFD2
:10454000DF91CF911F910F91FF90EF90DF90CF906F
:104550000895EF92FF920F931F938C01DC01589600
:10456000ED91FC915997808194969C919497892321
:1045700080835A96ED91FC915B97808195969C91F2
:1045800095978923808376988BB18C768BB94698E2
:1045900085B18F7C85B95C96ED91FC915D978081AA
:1045A00096969C919697892380835C96ED91FC91D9
:1045B0005D97808192969C919297892B80835C96DF
:1045C000ED91FC915D97808196969C9196978923B9
:1045D00080835C96ED91FC915D97808192969C9191
:1045E0009297892B80836E988AB18C768AB93E988F
:1045F00084B18F7C84B95A96ED91FC915B97808150
:1046000091969C91892B8083C8010E94CF1BF82E24
:10461000EE2481E090E00E94E125C8010E94CF1BBA
:10462000D8015896ED91FC915997908190962C91D4
:10463000922B90836E9A9AB193699AB93E9A94B1EB
:10464000906394B9282F30E02E293F29C9011F918A
:104650000F91FF90EF9008950F931F93CF93DF93E7
:10466000EC010E947917E88DF98D80819CA1892346
:1046700080838F89882331F58D89823051F0833092
:1046800059F0813019F448E250E108C040E350E1AC
:1046900005C040E050E102C048E150E1CE0163E0D6
:1046A00070E00E94B11C28853985215030400A8570
:1046B0001B8501501040CE0160E070E040E050E00A
:1046C0000E945B208F898130A9F48D89823041F06E
:1046D000833041F0813011F440E605C040E003C072
:1046E00040EC01C040EACE0166E10E94161CCE01FA
:1046F0000E942B20DF91CF911F910F910895CF93AE
:10470000DF93EC01E88DF98D808198A1892B80835E
:10471000EA8DFB8D808199A1892B8083EC8DFD8DA5
:1047200080819AA1892B8083EE8DFF8D80819BA152
:10473000892B808388A5882369F060E00E94CE26BB
:1047400062E070E080E090E00E94882588A561E04A
:104750000E94CE26E88DF98D80819CA189238083DB
:10476000EA8DFB8D808199A1892B808376988BB10E
:104770008C768BB9469885B18F7C85B9EC8DFD8D93
:1047800080819EA189238083EC8DFD8D80819AA1FB
:10479000892B808320E0EC8DFD8D80819EA1892373
:1047A0008083EC8DFD8D80819AA1892B80832F5F82
:1047B000273089F7E88DF98D808198A1892B808336
:1047C00064E670E080E090E00E948825DF91CF9160
:1047D00008950F931F93CF93DF93EC018B0160EF4C
:1047E00070E040E451E00E94D00ECE010E947F2391
:1047F00083E90532180729F083E90832180709F020
:1048000038C01F8AE88DF98D80819CA1892380831F
:1048100000E010E0F801EE0FFF1FE353F74F659142
:104820007491F801EE0FFF1FE153F74F459154913A
:104830006F3F710531F4BA0180E090E00E94882555
:1048400003C0CE010E94B11C0E5F1F4F063611053A
:1048500009F7CE016D890E942C23CE0160E070E043
:1048600040E050E02FEE30E00FE311E00E945B20CB
:1048700030C00557154759F581E08F8BE88DF98DCC
:1048800080819CA18923808300E010E0F801E75635
:10489000F64F6491F801E656F64F44916F3F39F4B4
:1048A000642F70E080E090E00E94882503C0CE0174
:1048B0000E94161C0E5F1F4F0635110539F7CE01F9
:1048C0006D890E942C23CE010E942B2002C08FEF05
:1048D0008F8BDF91CF911F910F910895AF92BF926F
:1048E000CF92DF92EF92FF920F931F93CF93DF93BC
:1048F000EC01862F142FF22E1B821A8222EE31E059
:1049000039832883E8A6A62EBB24F501E75EF54F80
:10491000E491F0E0EE0FFF1FE350F64FA591B49144
:10492000B98FA88FC12EDD24F601E75EF54FE49123
:10493000F0E0EE0FFF1FE350F64F259134913B8FCF
:104940002A8F6F2D70E0FB01E75EF54FE491F0E0F8
:10495000EE0FFF1FE350F64F259134913D8F2C8FC2
:10496000402F50E0FA01E75EF54FE491F0E0EE0FE2
:10497000FF1FE350F64F259134913F8F2E8F27E391
:104980003AE0A20EB31EF501B490B8A2C20ED31E37
:10499000F601349139A3695C754FFB0124912AA378
:1049A000495C554FFA0144914BA39B2D90959CA3D4
:1049B00030953DA320952EA340954FA39C919B2914
:1049C0009C93EA8DFB8D908129A1922B9083EC8D95
:1049D000FD8D90812AA1922B9083EE8DFF8D908189
:1049E0002BA1922B908361E00E944126812F61E0F0
:1049F0000E9441268F2D61E00E944126802F61E0B8
:104A00000E944126EE2041F08E2D61E00E94CE26CC
:104A10008E2D61E00E944126CE010E94A017DF91F9
:104A2000CF911F910F91FF90EF90DF90CF90BF90AB
:104A3000AF9008951F920F920FB60F9211242F93EB
:104A40003F938F939F93AF93BF9380914302909135
:104A50004402A0914502B09146023091470201966E
:104A6000A11DB11D232F2D5F2D3720F02D5701964D
:104A7000A11DB11D209347028093430290934402ED
:104A8000A0934502B093460280913F02909140026C
:104A9000A0914102B09142020196A11DB11D8093E7
:104AA0003F0290934002A0934102B0934202BF9113
:104AB000AF919F918F913F912F910F900FBE0F90CB
:104AC0001F9018959FB7F89420913F0230914002B3
:104AD000409141025091420286B5A89B06C08F3F8B
:104AE00021F02F5F3F4F4F4F5F4F9FBF542F432FFA
:104AF000322F2227280F311D411D511D82E0220F28
:104B0000331F441F551F8A95D1F7B901CA01089573
:104B10009B01AC017FB7F89480913F0290914002D5
:104B2000A0914102B091420266B5A89B05C06F3FBB
:104B300019F00196A11DB11D7FBFBA2FA92F982F83
:104B40008827860F911DA11DB11D62E0880F991F56
:104B5000AA1FBB1F6A95D1F7BC012DC0FFB7F894FF
:104B600080913F0290914002A0914102B091420297
:104B7000E6B5A89B05C0EF3F19F00196A11DB11D38
:104B8000FFBFBA2FA92F982F88278E0F911DA11D27
:104B9000B11DE2E0880F991FAA1FBB1FEA95D1F74C
:104BA000861B970B885E9340C8F2215030404040EE
:104BB000504068517C4F211531054105510571F672
:104BC0000895019739F0880F991F880F991F029750
:104BD0000197F1F70895789484B5826084BD84B517
:104BE000816084BD85B5826085BD85B5816085BDE8
:104BF000EEE6F0E0808181608083E1E8F0E0108201
:104C0000808182608083808181608083E0E8F0E041
:104C1000808181608083E1E9F0E08081826080832F
:104C2000808181608083E0E9F0E080818160808321
:104C3000E1ECF0E080818460808380818260808309
:104C4000808181608083E3ECF0E0808181608083FB
:104C5000E0ECF0E0808182608083E2ECF0E0808133
:104C600081608083EAE7F0E08081846080838081D6
:104C7000826080838081816080838081806880837E
:104C80000895CF93DF93482F50E0CA01895C954F78
:104C9000FC013491475E554FFA018491882369F1F4
:104CA00090E0880F991FFC01E151F64FA591B49156
:104CB000FC01E350F64FC591D491662351F42FB710
:104CC000F8948C91932F909589238C9388818923D4
:104CD0000BC0623061F42FB7F8948C91932F9095AC
:104CE00089238C938881832B88832FBF06C09FB72D
:104CF000F8948C91832B8C939FBFDF91CF91089573
:104D0000883071F1893068F4823031F1833020F4D9
:104D1000813009F042C01DC0833089F08430E9F54C
:104D200012C08B3059F18C3028F48930E9F08A3088
:104D3000A1F51EC08C3031F18E3079F529C08091FB
:104D400080008F7703C0809180008F7D80938000EA
:104D5000089584B58F7702C084B58F7D84BD089592
:104D6000809190008F7707C0809190008F7D03C065
:104D700080919000877F8093900008958091C0007B
:104D80008F7703C08091C0008F7D8093C00008950D
:104D90008091C200877F8093C2000895FF920F9395
:104DA0001F93F62E482F50E0CA018B5A954FFC01F5
:104DB0002491CA01895C954FFC011491475E554FBF
:104DC000FA0104910023C9F0222319F0822F0E94D6
:104DD0008026E02FF0E0EE0FFF1FE350F64FA59185
:104DE000B4919FB7F894FF2021F48C911095812302
:104DF00002C08C91812B8C939FBF1F910F91FF90CC
:104E000008950895209188023091890280918A0244
:104E100090918B02281B390B2F733070C9010895B4
:104E2000209188023091890280918A0290918B02B0
:104E30002817390719F42FEF3FEF09C0E0918A02D4
:104E4000F0918B02E85BFD4F8081282F30E0C90193
:104E50000895209188023091890280918A02909170
:104E60008B022817390719F42FEF3FEF13C0E09199
:104E70008A02F0918B02E85BFD4F208180918A02CB
:104E800090918B0201968F73907090938B02809318
:104E90008A0230E0C901089510928F0210928E02AA
:104EA00088EE93E0A0E0B0E08093900290939102AE
:104EB000A0939202B09393028AEF91E090938D02B7
:104EC00080938C0208950F931F93DF93CF930F92DB
:104ED000CDB7DEB78C0169838091DB01882369F04F
:104EE00083E0BE016F5F7F4F41E050E00E94582B8E
:104EF0001816190614F49C0107C081E090E0F8012F
:104F00009383828320E030E0C9010F90CF91DF913D
:104F10001F910F91089583E00E942F2B0895CF9346
:104F2000DF9312C082E00E94BA2A2FEF8F3F9207D0
:104F3000C9F0E0918802F0918902E85BFD4F80831F
:104F4000D0938902C0938802C0918802D0918902CF
:104F50002196CF73D07080918A0290918B02C817EE
:104F6000D90701F7DF91CF910895FC0180818E5F11
:104F7000808380E861E77AE042E450E00E94D32A2F
:104F80000895FC0181819081913A59F4813209F0B0
:104F90004CC080E064ED71E047E050E00E94D32A0D
:104FA00042C0913209F041C0803239F484ED91E081
:104FB00067E070E00E94172B36C0823209F035C0DE
:104FC00082818093DB018091D4019091D501A091E1
:104FD000D601B091D701805B9440A040B04019F554
:104FE0008091DB0180FD12C087E797E7909301086D
:104FF000809300082BE088E190E00FB6F894A89524
:10500000809360000FBE209360000DC088E10FB652
:10501000F89480936000109260000FBEA8951092E3
:1050200001081092000881E0089580E00895CF9370
:10503000DF930E94EB2582EA92E00E943A2B0E94C5
:10504000720DC0E0D0E00E945E0D2097E1F30E9457
:105050000000F9CFCF92DF92EF92FF920F931F9350
:10506000CF93DF937C016B018A01C0E0D0E00FC0D9
:10507000D6016D916D01D701ED91FC910190F08108
:10508000E02DC7010995C80FD91F01501040011527
:10509000110571F7CE01DF91CF911F910F91FF9014
:1050A000EF90DF90CF900895DC01ED91FC9101909D
:1050B000F081E02D09950895EF92FF920F931F93D1
:1050C0008C01DC01ED91FC910190F081E02D6DE00F
:1050D00009957C01D801ED91FC910190F081E02DC2
:1050E000C8016AE009959C012E0D3F1DC9011F9161
:1050F0000F91FF90EF900895CF93DF93EC0161152E
:10510000710519F420E030E00FC0DB010D900020A4
:10511000E9F71197A61BB70BE881F9810280F381AB
:10512000E02DAD0109959C01C901DF91CF91089552
:105130004F925F927F928F929F92AF92BF92CF9247
:10514000DF92EF92FF920F931F93DF93CF93CDB730
:10515000DEB7A1970FB6F894DEBF0FBECDBF2C010E
:10516000742ECB01223008F42AE019A231E2C32EBA
:10517000D12CCC0EDD1E822E9924AA24BB24672DAF
:10518000752FA50194010E94613179018A01C8013E
:10519000B701A50194010E942F31472D461B0894A9
:1051A000C108D1084A3010F4405D01C0495CF601E5
:1051B0004083E114F1040105110521F07E2C5F2DDF
:1051C000C801DDCFC201B6010E947C28A1960FB6AE
:1051D000F894DEBF0FBECDBFCF91DF911F910F912D
:1051E000FF90EF90DF90CF90BF90AF909F908F9007
:1051F0007F905F904F900895DC012115310541F4B7
:10520000ED91FC910190F081E02D642F09950895B6
:105210000E9498280895EF92FF920F931F937C01AC
:105220000E94FC288C01C7010E945C289C01200F71
:10523000311FC9011F910F91FF90EF900895CF92F8
:10524000DF92EF92FF920F931F936C017B019A0103
:1052500000E010E0B801A7010E94FC288C01C60103
:105260000E945C28080F191FC8011F910F91FF9021
:10527000EF90DF90CF900895CF92DF92EF92FF9260
:105280000F931F93CF93DF93EC016A017B012115EC
:10529000310541F4E881F9810190F081E02D642F1E
:1052A00009951FC02A303105D1F477FF17C0E88176
:1052B000F9810190F081E02D6DE209958C01442780
:1052C0005527BA014C195D096E097F09CE012AE004
:1052D0000E9498289801280F391F04C02AE00E94D4
:1052E00098289C01C901DF91CF911F910F91FF90E8
:1052F000EF90DF90CF9008957F928F929F92AF9220
:10530000BF92CF92DF92EF92FF920F931F93CF93B2
:10531000DF934C017A018B01722ECB01BA01A801F7
:1053200097010E942B31882321F0C40166EC71E0C3
:1053300021C0C0E0D0E057016801E894D7F8C60169
:10534000B5012FEF3FEF4FE75FE70E942B31882336
:1053500051F4C601B5012FEF3FEF4FE75FE70E9421
:10536000752F181614F0C1E0D0E0219739F0C40170
:105370006AEC71E00E947C28EC0193C0C801B7017F
:105380002FEF3FEF4FE75FE40E94C430181654F050
:10539000C801B7012FEF3FEF4FE75FEC0E94752F79
:1053A000882324F4C4016EEC71E0E4CFC801B70196
:1053B00020E030E040E050E00E94752F87FD03C000
:1053C000C0E0D0E00EC0D401ED91FC910190F081DD
:1053D000E02DC4016DE20995EC0117FB109517F95A
:1053E000109520E030E040E05FE3DD240BC0CA010F
:1053F000B90120E030E040E251E40E94792F9B01A6
:10540000AC01D394D71498F3C801B7010E94112FAF
:105410005B016C010E94E62F7B018C01C401B80185
:10542000A7012AE030E00E94FC28C80FD91F77208E
:1054300039F0C40162ED71E00E947C28C80FD91FC9
:10544000C801B7010E9412309B01AC01C601B50131
:105450000E94102F24C020E030E040E251E40E947E
:10546000C8307B018C010E94E12F5B016C01CC24D0
:10547000B7FCC094DC2CC401B601A5012AE030E0E1
:105480000E943C29C80FD91FC601B5010E941430E3
:105490009B01AC01C801B7010E94102F7A947720BC
:1054A000D1F6CE01DF91CF911F910F91FF90EF9038
:1054B000DF90CF90BF90AF909F908F907F90089596
:1054C000EF92FF920F931F937C010E947C298C0125
:1054D000C7010E945C28080F191FC8011F910F9176
:1054E000FF90EF900895EF92FF920F931F937C012E
:1054F0000E947C288C01C7010E945C28080F191F9C
:10550000C8011F910F91FF90EF900895282F80916F
:105510009C028823C1F057FF1AC015C028989093A9
:105520009B028091F1008193E217F307B9F74115CF
:10553000510539F08091F200882319F48BE68093AD
:10554000E800AFBF02C04FEF5FEFCA010895AFB7E9
:10555000F89427702093E9008091F200282F30E022
:10556000241735070CF4A901FB019B01240F311D01
:1055700094E6DACFDF93CF930F92CDB7DEB7BE01BB
:105580006F5F7F4F41E050E00E94862A019719F03B
:105590002FEF3FEF03C08981282F30E0C9010F9022
:1055A000CF91DF910895FF920F931F93F82E142F40
:1055B000052F40919F025091A002212F302FC90149
:1055C000DC01FB016EEF29C0F7FE02C0949101C01F
:1055D000908120919D0230919E0224173507ACF4F2
:1055E0008091E8008570E1F38091E80082FF03C0BC
:1055F0002FEF3FEF17C09093F100C90101968F7311
:105600009070892B11F46093E8002F5F3F4F309327
:105610009E0220939D02119731961097A9F6812F33
:10562000902F9C01C9011F910F91FF9008959C013B
:105630008091E80082FFFCCFF901260F311D03C0E5
:105640008091F1008193E217F307D1F7289884E65F
:1056500080939B028BEF8093E800CB0108958093A9
:10566000E9008091F200882319F08AE38093E80032
:105670000895089510929C0281E08093D70080EAFB
:105680008093D80082E189BD09B400FEFDCF61E0BE
:1056900070E080E090E00E94882580E98093D80047
:1056A0008CE08093E2001092E000559A209A0895D1
:1056B0005F926F927F928F929F92AF92BF92CF92A2
:1056C000DF92EF92FF920F931F93CF93DF93E82E19
:1056D000842E752E80919C02882371F18B01242FDA
:1056E000352FC901EC017AEFF72E67E0962E9E2048
:1056F00050E4552E8E2D90E040E2A42EB12CA8222D
:10570000B9223AE3632E20E4C22ED12CC822D9223A
:1057100058C09FB7F8949092E9008091E80085FD09
:1057200002C020E004C08091F200252D281B9FBFFD
:10573000222361F4FA9419F42FEF3FEF4DC061E09A
:1057400070E080E090E00E9488253BC0822F90E0CE
:10575000C817D9070CF42C2FC21BD1094FB7F894E6
:105760009092E900A114B10421F406C01092F10056
:1057700021502223D9F719C0E7FC03C0F801922F6A
:1057800010C0C801322F06C0FC010196E491E093DD
:10579000F10031503323C1F706C081918093F100AD
:1057A00091509923D1F7020F111D8091E80085FFD8
:1057B00005C0209729F4C114D10411F06092E800CB
:1057C0004FBF209709F0A5CF5D9884E680939A0299
:1057D000282D372DC9019C01C901DF91CF911F915F
:1057E0000F91FF90EF90DF90CF90BF90AF909F9080
:1057F0008F907F906F905F9008951F920F920FB6D9
:105800000F9211242F933F934F935F936F937F9346
:105810008F939F93AF93BF93EF93FF938091E1009A
:105820001092E100982F83FF0FC01092E90081E0F1
:105830008093EB001092EC0082E38093ED001092D5
:105840009C0288E08093F00092FF34C083E0809354
:10585000E9008091F200882319F08AE38093E80040
:105860008FB7F89492E09093E9009091F2008FBF87
:10587000992321F08CE892E00E948F2780919A0270
:10588000882351F080919A02815080939A028091EE
:105890009A02882309F45D9A80919B02882351F033
:1058A00080919B02815080939B0280919B02882370
:1058B00009F4289AFF91EF91BF91AF919F918F9139
:1058C0007F916F915F914F913F912F910F900FBEFC
:1058D0000F901F9018950F931F93DF93CF930F9204
:1058E000CDB7DEB719828E010F5F1F4FC8010E942E
:1058F000B527C8010E94042F898190E00F90CF91B5
:10590000DF911F910F9108951F920F920FB60F9282
:105910001124EF92FF921F932F933F934F935F9326
:105920006F937F938F939F93AF93BF93EF93FF9367
:10593000DF93CF93CDB7DEB76197DEBFCDBF1092B7
:10594000E9008091E80083FF0FC1FE0131969E01BE
:10595000275F3F4F03C08091F1008193E217F30767
:10596000D1F7289884E680939B0282EF8093E80029
:10597000998197FF05C08091E80080FFFCCF03C0AC
:105980008EEF8093E800292F30E0C9018076907077
:10599000892B09F0C2C08A81882329F41092F10072
:1059A0001092F100D6C0813009F4D3C0833009F4DD
:1059B000D0C0853049F48091E80080FFFCCF8B8116
:1059C00080688093E300C5C0863009F07CC01C81EC
:1059D000EF80F8841230C1F51092E90010929E0217
:1059E00010929D021092A00210929F020E946B2CB6
:1059F00099E0FE013996DF01292F1D922A95E9F7DA
:105A000099871A8791E09E8790E8988B9AEF998BF7
:105A100020919D0230919E02275F3F4F3C872B874C
:105A20008D871092E90010929E0210929D02F092D2
:105A3000A002E0929F0280E0BF0149E050E00E9496
:105A4000D32A0E946B2C85C01092E90010929E020E
:105A500010929D02F092A002E0929F02123241F455
:105A600082E290E00E94FC2E892B09F476C071C07E
:105A7000113079F488E0E816F10419F481E080939C
:105A8000A1028091A102882309F06BC0E1EFFAE046
:105A900013C0133009F061C08B81882319F4E3EB44
:105AA000FAE00AC0823019F4E7EBFAE005C0813071
:105AB00009F053C0E9EDFAE0449180E8BF0150E0FD
:105AC0000E94D32A46C0873009F447C0883021F4A9
:105AD00081E08093F1003DC08930D9F523703070AA
