:100000000C9498000C94C0000C94C0000C94C00098
:100010000C94C0000C94C0000C94C0000C94C00060
:100020000C94C0000C94C0000C94C0000C94C00050
:100030000C94C0000C94C0000C94C0000C94C00040
:100040000C94C0000C94C0000C94C0000C94C00030
:100050000C94C0000C94C0000C94C0000C94AA0234
:100060000C94C0000C94C0000C94C0000C94C00010
:100070000C94C0000C94C0000C94C0000C94C00000
:100080000C94C0000C94C0000C94C0000C94C000F0
:100090000C94C0000C94C0000C94C0000C94C000E0
:1000A0000C94C0000C94C0000C94C0000000000030
:1000B000240027002A002D00300000000000250049
:1000C00028002B002E003100000000002300260035
:1000D00029002C002F000404040404030405020278
:1000E00002020403020202020606060606060404D1
:1000F00002020204040802011040804010204080E7
:10010000408008020401804020100201108010206D
:1001100040400000000200080E0000030401000B34
:100120000000070605040100080A0B0C0D09C200B7
:1001300011241FBECFEFDAE0DEBFCDBF11E0A0E09B
:10014000B1E0EAE1F8E002C005900D92A631B107F6
:10015000D9F711E0A6E1B1E001C01D92A433B107C7
:10016000E1F711E0C0E3D1E004C02297FE010E9454
:100170000704CE32D107C9F70E94D5000C940B04B6
:100180000C940000CF92EF920F9386E191E06CE027
:100190004BE025E004E053E0E52E32E0C32E0E9460
:1001A00071020F91EF90CF9008950F931F9306E186
:1001B00011E0C80160E142E020E00E94BB01C801FB
:1001C00060E071E00E94020480E090E01F910F91D6
:1001D00008950F931F938C01FC01868160E00E94BB
:1001E000890381E090E00E94F202F801868161E0DB
:1001F0000E94890381E090E00E94F202F80186816A
:1002000060E00E94890384E690E00E94F2021F9160
:100210000F910895CF92DF92EF92FF920F931F9369
:10022000CF93DF93D82EC92E282F392FC9018C01E7
:10023000C0E0D0E0E62EFF24F801878161E00E9453
:10024000FC02B7010C2E02C0759567950A94E2F77F
:100250006170F80187810E94890321960F5F1F4F0B
:10026000C830D10549F78D2D9C2D0E94E900DF9102
:10027000CF911F910F91FF90EF90DF90CF90089555
:10028000CF92DF92EF92FF920F931F93CF93DF9362
:10029000D82EC92E282F392FC9018C01C0E0D0E0FB
:1002A000E62EFF24F801878161E00E94FC02B7017D
:1002B0000C2E02C0759567950A94E2F76170F801FB
:1002C00087810E94890321960F5F1F4FC430D1059B
:1002D00049F78D2D9C2D0E94E900DF91CF911F9150
:1002E0000F91FF90EF90DF90CF9008951F93CF93E1
:1002F000DF93EC01162F8C81642F0E9489038D817E
:100300008F3F19F060E00E9489038F8584FF05C04C
:10031000CE01612F0E940A010EC0612F70E084E0BF
:10032000759567958A95E1F7CE010E944001CE014F
:10033000612F0E944001DF91CF911F91089541E00C
:100340000E94760181E090E0089540E00E947601ED
:100350000895FC016089862F8460808B6C60CF01DA
:100360000E94A501089561E00E94A50180ED97E03B
:100370000E94F2020895CF93DF93EC01423018F00F
:100380008F8588608F874B8B1C8A222329F0413010
:1003900019F48F8584608F8780E593EC0E94F202C8
:1003A0008C8160E00E9489038E8160E00E94890355
:1003B0008D818F3F19F060E00E9489036F8564FD95
:1003C0001DC0CE0163E00E94400184E991E10E94DA
:1003D000F202CE0163E00E94400184E991E10E94B3
:1003E000F202CE0163E00E94400186E990E00E94A3
:1003F000F202CE0162E00E94400116C06062CE01AE
:100400000E94A50184E991E10E94F2026F85606279
:10041000CE010E94A50186E990E00E94F2026F855C
:100420006062CE010E94A5016F856062CE010E94CC
:10043000A50184E0888BCE010E94A901CE010E9413
:10044000B30182E0898BCE0166E00E94A501DF91B5
:10045000CF9108956F927F928F92AF92CF92EF9249
:100460000F931F93DF93CF93CDB7DEB73C01162FC9
:10047000842FF301448325830683E782C086A18607
:1004800082869D8593879E8594879F859587988989
:10049000968761E00E94FC02F30185818F3F19F08D
:1004A00061E00E94FC02F301868161E00E94FC028F
:1004B000112319F0F301178603C080E1F301878748
:1004C000C30160E141E020E00E94BB01CF91DF91D8
:1004D0001F910F91EF90CF90AF908F907F906F9082
:1004E00008958F92AF92CF92EF920F931F93CF9375
:1004F000DF93DC01362F542F722F102FAE2C8C2C53
:1005000013961C921E92129782E191E011969C9391
:100510008E9300D000D0EDB7FEB73196CDB7DEB7E1
:100520001982118212821382CD0161E0432F2FEFD5
:10053000052FE72EC12E0E942A020F900F900F90D8
:100540000F90DF91CF911F910F91EF90CF90AF90CF
:100550008F9008951F920F920FB60F9211242F9330
:100560003F938F939F93AF93BF9380912F0190916F
:100570003001A0913101B0913201309133010196E7
:10058000A11DB11D232F2D5F2D3720F02D57019672
:10059000A11DB11D2093330180932F019093300151
:1005A000A0933101B093320180912B0190912C01E5
:1005B000A0912D01B0912E010196A11DB11D809336
:1005C0002B0190932C01A0932D01B0932E01BF918C
:1005D000AF919F918F913F912F910F900FBE0F90F0
:1005E0001F901895019739F0880F991F880F991F50
:1005F00002970197F1F70895CF93DF93482F50E0CA
:10060000CA018C509F4FFC0134914A525F4FFA014E
:100610008491882369F190E0880F991FFC01E455CB
:10062000FF4FA591B491FC01E654FF4FC591D491C1
:10063000662351F42FB7F8948C91932F90958923CA
:100640008C93888189230BC0623061F42FB7F894B2
:100650008C91932F909589238C938881832B888309
:100660002FBF06C09FB7F8948C91832B8C939FBFAC
:10067000DF91CF910895883071F1893068F482302C
:1006800031F1833020F4813009F042C01DC0833045
:1006900089F08430E9F512C08B3059F18C3028F4A0
:1006A0008930E9F08A30A1F51EC08C3031F18E30EE
:1006B00079F529C0809180008F7703C080918000F8
:1006C0008F7D80938000089584B58F7702C084B5B4
:1006D0008F7D84BD0895809190008F7707C08091B1
:1006E00090008F7D03C080919000877F8093900061
:1006F00008958091C0008F7703C08091C0008F7DE6
:100700008093C00008958091C200877F8093C200CB
:100710000895FF920F931F93F62E482F50E0CA01C1
:100720008E5E9E4FFC012491CA018C509F4FFC01AC
:1007300014914A525F4FFA0104910023C9F0222319
:1007400019F0822F0E943B03E02FF0E0EE0FFF1F15
:10075000E654FF4FA591B4919FB7F894FF2021F480
:100760008C911095812302C08C91812B8C939FBF1B
:100770001F910F91FF900895CF92DF92EF92FF9219
:100780000F931F93CF93DF937C016B018A01C0E02D
:10079000D0E00FC0D6016D916D01D701ED91FC91B4
:1007A0000190F081E02DC7010995C80FD91F0150B4
:1007B00010400115110571F7CE01DF91CF911F9106
:1007C0000F91FF90EF90DF90CF900895CF93DF933C
:1007D000EC016115710519F420E030E00FC0DB0178
:1007E0000D900020E9F71197A61BB70BE881F9815E
:1007F0000280F381E02DAD0109959C01C901DF91D3
:10080000CF9108950E94E6030895EE0FFF1F059013
:0A081000F491E02D0994F894FFCF55
:10081A0068656C6C6F2C20776F726C642100000025
:06082A0000009F01BC0369
:00000001FF
