:100000000C9451040C9479040C9479040C947904A4
:100010000C9479040C9479040C9479040C9479046C
:100020000C9479040C9479040C9404120C948B12A3
:100030000C9479040C9479040C9479040C9479044C
:100040000C9479040C9479040C9479040C9479043C
:100050000C9479040C9479040C9479040C94340D68
:100060000C9479040C9479040C9479040C9479041C
:100070000C9479040C9479040C9479040C9479040C
:100080000C9479040C9479040C9479040C947904FC
:100090000C9479040C9479040C9479040C947904EC
:1000A0000C9479040C9479040C94790400000000F9
:1000B000003E5B4F5B3E3E6B4F6B3E1C3E7C3E1CEE
:1000C000183C7E3C181C577D571C1C5E7F5E1C0034
:1000D000183C1800FFE7C3E7FF0018241800FFE7EB
:1000E000DBE7FF30483A060E2629792926407F05AE
:1000F0000507407F05253F5A3CE73C5A7F3E1C1CC4
:1001000008081C1C3E7F14227F22145F5F005F5F83
:1001100006097F017F006689956A6060606060946F
:10012000A2FFA29408047E040810207E2010080874
:100130002A1C08081C2A08081E101010100C1E0C7F
:100140001E0C30383E3830060E3E0E060000000011
:100150000000005F00000007000700147F147F14F8
:10016000242A7F2A1223130864623649562050003D
:1001700008070300001C2241000041221C002A1C29
:100180007F1C2A08083E0808008070300008080814
:100190000808000060600020100804023E51494534
:1001A0003E00427F400072494949462141494D3352
:1001B0001814127F1027454545393C4A49493141B9
:1001C000211109073649494936464949291E000087
:1001D00014000000403400000008142241141414DC
:1001E0001414004122140802015909063E415D59C8
:1001F0004E7C1211127C7F494949363E41414122D1
:100200007F4141413E7F494949417F090909013EFA
:10021000414151737F0808087F00417F4100204021
:10022000413F017F081422417F404040407F021C33
:10023000027F7F0408107F3E4141413E7F0909094A
:10024000063E4151215E7F09192946264949493216
:1002500003017F01033F4040403F1F2040201F3FDC
:100260004038403F63140814630304780403615961
:10027000494D43007F4141410204081020004141A3
:10028000417F04020102044040404040000307084F
:100290000020545478407F2844443838444444284B
:1002A000384444287F385454541800087E090218F2
:1002B000A4A49C787F0804047800447D400020407A
:1002C000403D007F1028440000417F40007C0478BE
:1002D00004787C080404783844444438FC18242406
:1002E0001818242418FC7C08040408485454542486
:1002F00004043F44243C4040207C1C2040201C3C03
:100300004030403C44281028444C9090907C4464F9
:10031000544C44000836410000007700000041368C
:10032000080002010204023C2623263C1EA1A16112
:10033000123A4040207A3854545559215555794144
:100340002154547841215554784020545579400C1B
:100350001E527212395555555939545454593955FC
:100360005454580000457C410002457D420001453F
:100370007C40F0292429F0F0282528F07C545545AC
:10038000002054547C547C0A097F4932494949323F
:100390003248484832324A4848303A4141217A3A54
:1003A00042402078009DA0A07D39444444393D401E
:1003B00040403D3C24FF2424487E4943662B2FFCCB
:1003C0002F2BFF0929F620C0887E09032054547979
:1003D000410000447D413048484A32384040227A4A
:1003E000007A0A0A727D0D19317D2629292F2826C7
:1003F0002929292630484D402038080808080808CF
:100400000808382F10C8ACBA2F102834FA00007B27
:10041000000008142A142222142A1408AA005500E5
:10042000AAAA55AA55AA000000FF00101010FF004C
:10043000141414FF001010FF00FF1010F010F0143F
:100440001414FC001414F700FF0000FF00FF141444
:10045000F404FC141417101F10101F101F14141490
:100460001F00101010F0000000001F101010101FCF
:1004700010101010F010000000FF101010101010DD
:10048000101010FF10000000FF140000FF00FF001C
:10049000001F10170000FC04F41414171017141494
:1004A000F404F40000FF00F714141414141414F7E7
:1004B00000F7141414171410101F101F141414F440
:1004C000141010F010F000001F101F0000001F1487
:1004D000000000FC140000F010F01010FF10FF14DA
:1004E0001414FF141010101F00000000F010FFFF84
:1004F000FFFFFFF0F0F0F0F0FFFFFF000000000052
:10050000FFFF0F0F0F0F0F38444438447C2A2A3E58
:10051000147E02020606027E027E02635549416392
:100520003844443C04407E201E2006027E0202998C
:10053000A5E7A5991C2A492A1C4C7201724C304A25
:100540004D4D303048784830BC625A463D3E4949AE
:1005500049007E0101017E2A2A2A2A2A44445F4456
:100560004440514A444040444A51400000FF010386
:10057000E080FF000008086B6B0836123624360650
:100580000F090F060000181800000010100030407E
:10059000FF0101001F01011E00191D1712003C3C44
:1005A0003C3C000000000000000100FF00320001A0
:1005B00000000102000007030030100400000008E2
:1005C000000202090000000A0000000C0000000DFB
:1005D0000000000F000000100000001100070012D2
:1005E00000000013000000FF00C80010009016116A
:1005F000002702FF00320012001A00FF0032001331
:1006000000001829002A00FF0032003000000031ED
:1006100000000032000000350006023600080837EE
:1006200000070038000102390000003C0000003DD6
:1006300000000020000000210000005000000051D8
:1006400000EF005200000053003F01600000A7616E
:100650000003006A00000090001000920000009368
:1006600000030095000011970000009800000007AB
:1006700000330100000000240027002A002D003074
:100680000000000000250028002B002E0031000093
:100690000000002300260029002C002F0004040481
:1006A0000404030405020202020403020202020619
:1006B00006060606060404020202040408020110EB
:1006C000408040102040804080080204018040208B
:1006D0001002011080102040400000000200080EAF
:1006E0000000030401000B000007060504010008D8
:1006F0000A0B0C0D09080B0002020201000904009C
:10070000000102020000052400100105240101017E
:100710000424020605240600010705810310004099
:1007200009040100020A000000070502024000005F
:1007300007058302400000040309042203410072FC
:10074000006400750069006E006F0020004C0065B9
:10075000006F006E006100720064006F00180341BA
:100760000072006400750069006E006F0020004C8C
:10077000004C0043001201000200000040412336FB
:10078000800001010200011201000202000040414C
:1007900023368000010102000100C18081C10501F2
:1007A0000902A1010901A100850105091901290317
:1007B00015002501950375018102950175058103D9
:1007C00005010930093109381581257F7508950320
:1007D0008106C0C005010906A1018502050719E0CF
:1007E00029E7150025017501950881029501750815
:1007F000810395067508150025650507190029650B
:100800008100C00904020001030000000921010168
:10081000000122650007058403400001000000007C
:10082000000000002A2B280000000000000000004B
:100830000000000000000000000000002C9EB4A09A
:10084000A1A2A434A6A7A5AE362D3738271E1F2097
:10085000212223242526B333B62EB7B89F8485865C
:100860008788898A8B8C8D8E8F90919293949596A0
:100870009798999A9B9C9D2F3130A3AD350405061E
:100880000708090A0B0C0D0E0F1011121314151680
:100890001718191A1B1C1DAFB1B0B500360F401147
:1008A0000E1411241FBECFEFDAE0DEBFCDBF11E082
:1008B000A0E0B1E0EAEFFAE202C005900D92A236A4
:1008C000B107D9F713E0A2E6B1E001C01D92AE3244
:1008D000B107E1F718E0C2EAD8E004C02297FE01B0
:1008E0000E944015CC39D107C9F70E9401100C9421
:1008F0007B150C940000AEE0B0E0E1E8F4E00C946D
:1009000052150D891E8986E08C831A8309838FEF27
:100910009FE79E838D839E01275E3F4FCE01019608
:100920006F89788DA9010E949F042F813885020F5D
:10093000131FF80110822E96E4E00C946E15ABE0C4
:10094000B0E0E5EAF4E00C9444153C012B015A01B7
:10095000FC0117821682838181FD03C06FEF7FEF58
:10096000C6C19AE0892E1E010894211C311CF30196
:100970002381F20123FD859123FF81912F0188239B
:1009800009F4B2C1853239F423FD859123FF8191A9
:100990002F01853229F490E0B3010E949206E7CF3F
:1009A000982FFF24EE249924FFE1FF15D0F09B320D
:1009B00069F09C3228F4903259F0933291F40EC0D1
:1009C0009D3249F0903369F441E024C052E0F52AA9
:1009D00084E0F82A28C098E0F92A25C0E0E1FE2A40
:1009E00022C0F7FC29C0892F80538A3070F4F6FEAC
:1009F00005C0989C902C1124980E15C0E89CE02C02
:100A00001124E80EF0E2FF2A0EC09E3229F4F6FC13
:100A10006BC140E4F42A07C09C3619F450E8F52A6B
:100A200002C0983649F4F20123FD959123FF91917C
:100A30002F01992309F0B8CF892F8554833018F0FE
:100A40008052833038F444E050E0A40EB51E5FE3DA
:100A500059830FC0933631F0933779F0933509F00D
:100A600056C020C0F5018081898342E050E0A40E89
:100A7000B51E610101E010E012C0F501C080D18017
:100A8000F6FC03C06FEF7FEF02C0692D70E042E01B
:100A900050E0A40EB51EC6010E9487068C015FE7D8
:100AA000F52214C0F501C080D180F6FC03C06FEFC1
:100AB0007FEF02C0692D70E042E050E0A40EB51E49
:100AC000C6010E947C068C0150E8F52AF3FE07C09F
:100AD0001AC080E290E0B3010E949206EA948E2D43
:100AE00090E008171907A8F30EC0F601F7FC8591EE
:100AF000F7FE81916F0190E0B3010E949206E11030
:100B0000EA94015010400115110579F7EAC09436B6
:100B100011F0993669F5F7FE08C0F50120813181A1
:100B20004281538184E090E00AC0F5018081918187
:100B30009C01442737FD4095542F82E090E0A80E99
:100B4000B91E9FE6F92257FF09C050954095309590
:100B500021953F4F4F4F5F4FE0E8FE2ACA01B90190
:100B6000A1012AE030E00E94BE06D82ED21840C073
:100B7000953729F41F2D1F7E2AE030E01DC01F2D60
:100B8000197F9F3661F0903720F4983509F0ACC09A
:100B90000FC0903739F0983709F0A6C004C028E09C
:100BA00030E00AC0106114FD146020E130E004C0A0
:100BB00014FD166020E132E017FF08C0F5016081E6
:100BC00071818281938144E050E008C0F501808109
:100BD0009181BC0180E090E042E050E0A40EB51E9F
:100BE000A1010E94BE06D82ED2188FE7F82EF1225E
:100BF000F6FE0BC05EEFF522D91438F4F4FE07C000
:100C0000F2FC05C08FEEF82202C01D2D01C0192D87
:100C1000F4FE0DC0FE01ED0DF11D8081803319F44D
:100C200099EEF92208C01F5FF2FE05C003C08F2DA8
:100C3000867809F01F5F0F2DF3FC14C0F0FE0FC083
:100C40001E1510F09D2C0BC09D2C9E0C911A1E2D74
:100C500006C080E290E0B3010E9492061F5F1E155D
:100C6000C0F304C01E1510F4E11A01C0EE2404FF05
:100C70000FC080E390E0B3010E94920602FF1DC006
:100C800001FD03C088E790E00EC088E590E00BC04E
:100C9000802F867891F001FF02C08BE201C080E2D4
:100CA000F7FC8DE290E0B3010E94920606C080E35B
:100CB00090E0B3010E9492069A94D914C0F3DA949A
:100CC000F101ED0DF11D808190E0B3010E949206CB
:100CD000DD20A9F706C080E290E0B3010E949206F1
:100CE000EA94EE20C1F743CEF30166817781CB0110
:100CF0002B96E2E10C946015FC0105906150704068
:100D00000110D8F7809590958E0F9F1F0895FC01D4
:100D10006150704001900110D8F7809590958E0F2A
:100D20009F1F08950F931F93CF93DF938C01EB01C7
:100D30008B8181FF1BC082FF0DC02E813F818C8182
:100D40009D812817390764F4E881F9810193F983BB
:100D5000E88306C0E885F985802F0995892B31F451
:100D60008E819F8101969F838E8302C00FEF1FEFBC
:100D7000C801DF91CF911F910F910895FA01AA2721
:100D8000283051F1203181F1E8946F936E7F6E5FCE
:100D90007F4F8F4F9F4FAF4FB1E03ED0B4E03CD07C
:100DA000670F781F891F9A1FA11D680F791F8A1F5F
:100DB000911DA11D6A0F711D811D911DA11D20D0C6
:100DC00009F468943F912AE0269F11243019305D80
:100DD0003193DEF6CF010895462F4770405D419371
:100DE000B3E00FD0C9F7F6CF462F4F70405D4A33BE
:100DF00018F0495D31FD4052419302D0A9F7EACF86
:100E0000B4E0A6959795879577956795BA95C9F7B4
:100E100000976105710508959B01AC010A2E0694A7
:100E20005795479537952795BA95C9F7620F731F60
:100E3000841F951FA01D08950F931F9386E10E94A4
:100E4000FC0C9093A9028093A80287E10E94FC0CFD
:100E50009093AB028093AA028DB79EB708970FB606
:100E6000F8949EBF0FBE8DBFEDB7FEB731960AE86E
:100E700012E0ADB7BEB712961C930E93119780E0A7
:100E800091E09383828386E190E09583848387E178
:100E900090E0978386830E947B048DB79EB7089667
:100EA0000FB6F8949EBF0FBE8DBF8AE093E0B801E5
:100EB0000E947A101F910F910895EF92FF920F9365
:100EC0001F9382E390E0909363018093620190937B
:100ED00065018093640110926701109266018AE0B7
:100EE00093E060E875E20E94EB0E0E94460A80E003
:100EF00090E00E94B00988E6E82E81E0F82EC70154
:100F00006EE071E04CE251E025E030E005E010E0F9
:100F10000E941F0BC70164E070E00E94910C609179
:100F200062017091630140916401509165012091CB
:100F3000660130916701C7010E940A0C1F910F9151
:100F4000FF90EF9008952EB1482F50E0782F7695BE
:100F5000972F90742F7B922B9EB99BB1682F660FB1
:100F600080719C76892B962F9078892B9A01287016
:100F70003070E3E035952795EA95E1F7822B7270A2
:100F8000782B7BB988B160748F7B682B68B985B189
:100F90004370507094E0440F551F9A95E1F78F7C91
:100FA000842B85B9E091B002F091B10280819091DB
:100FB000BA0289238083E091B002F091B10280816E
:100FC0009091B602892B80830895FF920F931F930F
:100FD000182FF62E072FE091AE02F091AF0280811C
:100FE0002091B90282238083892F0E94A307812F39
:100FF0000E94A307E091AE02F091AF028081909130
:10100000B502892B8083802F0E94A3078F2D0E9419
:10101000A3071F910F91FF900895AF92BF92CF92B7
:10102000DF92EF92FF920F931F93D82EC92EB62E08
:10103000A72E8A017901E091AC02F091AD02808186
:101040009091B8028923808380E590E06D2D7C2DFE
:101050000E94E50781E590E0B8010E94E50782E57E
:1010600090E06B2D7A2D0E94E50783E590E0B701B3
:101070000E94E50780E290E06D2D7C2D0E94E5073F
:1010800081E290E06B2D7A2D0E94E507E091AC02A1
:10109000F091AD0280819091B402892B80831F91E1
:1010A0000F91FF90EF90DF90CF90BF90AF90089599
:1010B000AF92BF92CF92DF92FF920F931F93CF9385
:1010C000DF93F82E092F5A016B01E091AC02F091E9
:1010D000AD0280819091B80289238083E091AE02B5
:1010E000F091AF0280819091B9028923808380E0E2
:1010F0000E94A30782E20E94A307E091AE02F09152
:10110000AF0280819091B502892B8083802F0E944D
:10111000A3078F2D0E94A3070894A108B108C10856
:10112000D108D601C501F6E0B695A79597958795A4
:10113000FA95D1F7EC010F1509F0E0C095C020E158
:10114000E091B002F091B10280819091BA028923BE
:101150008083E091B002F091B10280819091B6025B
:10116000892B8083E091B002F091B102808190914F
:10117000BA0289238083E091B002F091B1028081AC
:101180009091B602892B8083E091B002F091B10278
:1011900080819091BA0289238083E091B002F0911E
:1011A000B10280819091B602892B8083E091B002D8
:1011B000F091B10280819091BA0289238083E091FD
:1011C000B002F091B10280819091B602892B8083A8
:1011D000E091B002F091B10280819091BA0289232E
:1011E0008083E091B002F091B10280819091B602CB
:1011F000892B8083E091B002F091B10280819091BF
:10120000BA0289238083E091B002F091B10280811B
:101210009091B602892B8083E091B002F091B102E7
:1012200080819091BA0289238083E091B002F0918D
:10123000B10280819091B602892B8083E091B00247
:10124000F091B10280819091BA0289238083E0916C
:10125000B002F091B10280819091B602892B808317
:10126000215009F06DCF2197209709F068CF4A2DC2
:101270004F7325C0E091B002F091B102808190914E
:10128000BA0289238083E091B002F091B10280819B
:101290009091B602892B8083E091B002F091B10267
:1012A00080819091BA0289238083E091B002F0910D
:1012B000B10280819091B602892B808341504423F2
:1012C000C9F62AC010E1802F0E94A3078F2D0E942B
:1012D000A307802F0E94A3078F2D0E94A307802FB2
:1012E0000E94A3078F2D0E94A307802F0E94A307AF
:1012F0008F2D0E94A307115031F72197209711F7E6
:101300001A2D1F7307C0802F0E94A3078F2D0E94E4
:10131000A30711501123B9F7E091AC02F091AD028F
:1013200080819091B402892B8083DF91CF911F91AE
:101330000F91FF90DF90CF90BF90AF9008950F93E3
:101340001F939C018B0180E290E0B9010E94E507A8
:1013500081E290E0B8010E94E5071F910F91089586
:101360000F931F938C01E091AC02F091AD0280814C
:101370009091B8028923808380E090E060E070E083
:101380000E949F09C80140E05CE261E070E00E94B9
:101390005808E091AC02F091AD0280819091B402C6
:1013A000892B80831F910F910895E091AC02F091F9
:1013B000AD0280819091B402892B8083E091AE02CE
:1013C000F091AF0280819091B502892B8083E091EA
:1013D000B002F091B10280819091B602892B808396
:1013E000E091B202F091B30280819091B702892B13
:1013F00080838091BC02882371F060E00E94B80E67
:1014000062E070E080E090E00E947C0D8091BC0280
:1014100061E00E94B80EE091AC02F091AD028081D3
:101420009091B80289238083E091AE02F091AF02DF
:1014300080819091B502892B808380E00E94A30770
:1014400020E0E091B002F091B10280819091BA0267
:1014500089238083E091B002F091B1028081909164
:10146000B602892B80832F5F273059F7E091AC02B9
:10147000F091AD0280819091B402892B808364E663
:1014800070E080E090E00E947C0D0895CF93DF93A0
:1014900086E18093BC0242EB56E0FA01849190E031
:1014A000880F991F8F57994FFC01A591B491B09364
:1014B000AD02A093AC0241505040FA018491282F14
:1014C00030E0220F331F2F57394FF9018591949146
:1014D0009093AF028093AE0241505040FA01849144
:1014E000282F30E0220F331F2F57394FF9018591F4
:1014F00094919093B1028093B00241505040FA0110
:101500008491E82FF0E0EE0FFF1FEF57F94F859120
:1015100094919093B3028093B202E0EDF6E034919F
:101520003093B402319724912093B502319794916E
:101530009093B6023197E491E093B702832F8095A0
:101540008093B80220952093B90290959093BA02A7
:10155000E095E093BB028C91832B8C93E091AE02DB
:10156000F091AF0280819091B502892B8083E09148
:10157000B002F091B10280819091B602892B8083F4
:10158000E091B202F091B30280819091B702892B71
:10159000808385E161E00E942B0E84E161E00E947E
:1015A0002B0E83E161E00E942B0E82E161E00E943C
:1015B0002B0E86E161E00E94B80E86E161E00E9498
:1015C0002B0E6E9A8AB183698AB93E9A84B1806380
:1015D00084B90E94D509E091AC02F091AD028081FE
:1015E0009091B80289238083C0E0D0E0FE01EE0F25
:1015F000FF1FE955FA4F85919491FE01EE0FFF1FF1
:10160000E755FA4F659174918F3F910529F480E079
:1016100090E00E947C0D02C00E94E5072296C6362B
:10162000D10521F780E090E060E070E04FEE50E0FF
:101630002FE331E00E940D08DF91CF9108952F92A2
:101640003F924F925F926F927F928F929F92AF9252
:10165000BF92CF92DF92EF92FF920F931F93DF938F
:10166000CF9300D000D000D0CDB7DEB749835A83E6
:1016700079011801885E9E4FFC01219331931183FB
:101680000083EA51F140FE83ED838F01045E1E4F1B
:10169000F801118210823EE1C32E31E0D32E8D81FC
:1016A0009E81C80ED91EF6011182108220E2A22E60
:1016B00021E0B22EA80EB91EF50111821082DB01C5
:1016C0008D819E819C838B83BC0160567F4F40E05F
:1016D00050E028013601450150C08D919C91119731
:1016E000EB81FC819183808312968D919C9113975D
:1016F0009383828314968D919C911597958384830F
:101700008D919C911197FB019183808312968D910D
:101710009C9113979383828314968D919C91159736
:1017200095838483EB81FC8180819181F20120810A
:101730003181820F931F91838083EB81FC818281B1
:101740009381F30120813181820F931F91838083E4
:10175000EB81FC8184819581F40120813181820FAC
:10176000931F918380834F5F5F4F16968B819C817F
:1017700006969C838B836A5F7F4F4E155F050CF442
:10178000ACCFF80180819181B7010E941715718358
:101790006083F60180819181B7010E9417157183E2
:1017A0006083F50180819181B7010E9417157183D3
:1017B0006083AD81BE81A858BF4F29813A81C9019C
:1017C000FC0120E030E00AC080818C938181119679
:1017D0008C9311972F5F3F4F129632962215330547
:1017E0009CF326960FB6F894DEBF0FBECDBFCF9107
:1017F000DF911F910F91FF90EF90DF90CF90BF90FE
:10180000AF909F908F907F906F905F904F903F90A0
:101810002F9008956F927F928F929F92AF92BF9276
:10182000CF92DF92EF92FF920F931F93CF93DF93AC
:10183000FC016B015A014901E45EFE4F81919191D7
:101840008B01081B190B81919191BA01681B790BCF
:1018500080819181E052F140A901481B590BEF01B1
:10186000B0EA6B2E712C6E0E7F1E20E030E0A8E1F6
:10187000EA2EA1E0FA2EEE0EFF1E36C08881998175
:10188000800F911F998388838A819B81860F971F80
:101890009B838A838C819D81840F951F9D838C837C
:1018A000D3018D919C911197800F911F11969C935C
:1018B0008E9312968D919C911397860F971F139676
:1018C0009C938E93129714968D919C911597840FEB
:1018D000951F15969C938E9314972F5F3F4F2696D6
:1018E00086E090E0680E791ED7018D919C912817B3
:1018F000390724F2E45EFE4FC192D192A192B192D7
:1019000091828082DF91CF911F910F91FF90EF9094
:10191000DF90CF90BF90AF909F908F907F906F900F
:101920000895CF93DF93FC01DC01A056BF4F20E068
:1019300030E0EC01C85EDE4F56C080819181AC0181
:10194000469FC001479F900D569F900D1124918393
:10195000808382819381AC01469FC001479F900D97
:10196000569F900D11249383828384819581AC01CD
:10197000469FC001479F900D569F900D112495835F
:1019800084838D919C911197AC01469FC001479F24
:10199000900D569F900D112411969C938E93129644
:1019A0008D919C911397AC01469FC001479F900D6C
:1019B000569F900D112413969C938E931297149614
:1019C0008D919C911597AC01469FC001479F900D4A
:1019D000569F900D112415969C938E9314972F5F0C
:1019E0003F4F3696169688819981281739070CF44F
:1019F000A4CFDF91CF910895823108F08251E82F72
:101A0000F0E0E751F94FE49120917B008E2F86950D
:101A10008695869590E08170907035E0880F991FCB
:101A20003A95E1F72F7D282B20937B00E77080917A
:101A300036018295880F880F807C8E2B80937C00E6
:101A400080917A00806480937A0080917A0086FD8C
:101A5000FCCF2091780040917900942F80E030E015
:101A6000282B392BC90108951F920F920FB60F92A0
:101A700011242F933F938F939F93AF93BF938091A4
:101A8000C1029091C202A091C302B091C4023091F0
:101A9000C5020196A11DB11D232F2D5F2D3720F00A
:101AA0002D570196A11DB11D2093C5028093C1023F
:101AB0009093C202A093C302B093C4028091BD026E
:101AC0009091BE02A091BF02B091C0020196A11DEB
:101AD000B11D8093BD029093BE02A093BF02B0934C
:101AE000C002BF91AF919F918F913F912F910F9025
:101AF0000FBE0F901F9018959B01AC017FB7F89413
:101B00008091BD029091BE02A091BF02B091C0022F
:101B100066B5A89B05C06F3F19F00196A11DB11DC8
:101B20007FBFBA2FA92F982F8827860F911DA11D3F
:101B3000B11D62E0880F991FAA1FBB1F6A95D1F7DC
:101B4000BC012DC0FFB7F8948091BD029091BE02F8
:101B5000A091BF02B091C002E6B5A89B05C0EF3FBF
:101B600019F00196A11DB11DFFBFBA2FA92F982F03
:101B700088278E0F911DA11DB11DE2E0880F991FCE
:101B8000AA1FBB1FEA95D1F7861B970B885E93406F
:101B9000C8F2215030404040504068517C4F2115E0
:101BA00031054105510571F60895789484B5826038
:101BB00084BD84B5816084BD85B5826085BD85B5F1
:101BC000816085BDEEE6F0E0808181608083E1E8A0
:101BD000F0E01082808182608083808181608083D8
:101BE000E0E8F0E0808181608083E1E9F0E08081DD
:101BF00082608083808181608083E0E9F0E0808181
:101C000081608083E1ECF0E080818460808380816A
:101C100082608083808181608083E3ECF0E080815A
:101C200081608083E0ECF0E0808182608083E2EC80
:101C3000F0E0808181608083EAE7F0E08081846069
:101C400080838081826080838081816080838081C5
:101C5000806880830895CF93DF93482F50E0CA01B6
:101C60008554994FFC0134914356594FFA018491A0
:101C7000882369F190E0880F991FFC01ED58F94F16
:101C8000A591B491FC01EF57F94FC591D49166230A
:101C900051F42FB7F8948C91932F909589238C93BE
:101CA000888189230BC0623061F42FB7F8948C913E
:101CB000932F909589238C938881832B88832FBFC2
:101CC00006C09FB7F8948C91832B8C939FBFDF91B4
:101CD000CF910895883071F1893068F4823031F104
:101CE000833020F4813009F042C01DC0833089F078
:101CF0008430E9F512C08B3059F18C3028F48930EA
:101D0000E9F08A30A1F51EC08C3031F18E3079F5C2
:101D100029C0809180008F7703C0809180008F7DE3
:101D200080938000089584B58F7702C084B58F7D3D
:101D300084BD0895809190008F7707C080919000B6
:101D40008F7D03C080919000877F809390000895DD
:101D50008091C0008F7703C08091C0008F7D8093F9
:101D6000C00008958091C200877F8093C2000895CB
:101D7000FF920F931F93F62E482F50E0CA0187520F
:101D8000994FFC012491CA018554994FFC0114918B
:101D90004356594FFA0104910023C9F0222319F048
:101DA000822F0E946A0EE02FF0E0EE0FFF1FEF5728
:101DB000F94FA591B4919FB7F894FF2021F48C912D
:101DC0001095812302C08C91812B8C939FBF1F9112
:101DD0000F91FF9008950895209106033091070315
:101DE0008091080390910903281B390B2F733070E1
:101DF000C9010895209106033091070380910803DB
:101E0000909109032817390719F42FEF3FEF09C004
:101E1000E0910803F0910903EA53FD4F8081282FD8
:101E200030E0C901089520910603309107038091A5
:101E30000803909109032817390719F42FEF3FEF92
:101E400013C0E0910803F0910903EA53FD4F20818C
:101E5000809108039091090301968F73907090937D
:101E600009038093080330E0C901089510920D031F
:101E700010920C0388EE93E0A0E0B0E080930E0394
:101E800090930F03A0931003B093110385E491E0A6
:101E900090930B0380930A0308950F931F93DF938E
:101EA000CF930F92CDB7DEB78C01698380913E014D
:101EB000882369F083E0BE016F5F7F4F41E050E00F
:101EC0000E945F111816190614F49C0107C081E0E6
:101ED00090E0F8019383828320E030E0C9010F9005
:101EE000CF91DF911F910F91089583E00E943611E9
:101EF0000895CF93DF9312C082E00E94C1102FEFAC
:101F00008F3F9207C9F0E0910603F0910703EA536F
:101F1000FD4F8083D0930703C0930603C09106034F
:101F2000D09107032196CF73D070809108039091D0
:101F30000903C817D90701F7DF91CF910895FC0174
:101F400080818E5F808380E865EF76E042E450E038
:101F50000E94DA100895FC0181819081913A59F430
:101F6000813209F04CC080E067E371E047E050E067
:101F70000E94DA1042C0913209F041C0803239F437
:101F800087E391E067E070E00E941E1136C0823264
:101F900009F035C0828180933E0180913701909194
:101FA0003801A0913901B0913A01805B9440A04082
:101FB000B04019F580913E0180FD12C087E797E798
:101FC00090930108809300082BE088E190E00FB621
:101FD000F894A895809360000FBE209360000DC018
:101FE00088E10FB6F89480936000109260000FBEF5
:101FF000A895109201081092000881E0089580E0F1
:102000000895CF93DF930E94D50D80E293E00E9464
:1020100041110E945D07C0E0D0E00E941C0720979C
:10202000E1F30E940000F9CFCF92DF92EF92FF928E
:102030000F931F93CF93DF937C016B018A01C0E064
:10204000D0E00FC0D6016D916D01D701ED91FC91EB
:102050000190F081E02DC7010995C80FD91F0150EB
:1020600010400115110571F7CE01DF91CF911F913D
:102070000F91FF90EF90DF90CF900895EF92FF9235
:102080000F931F938C01DC01ED91FC910190F08185
:10209000E02D6DE009957C01D801ED91FC91019056
:1020A000F081E02DC8016AE009959C012E0D3F1DCD
:1020B000C9011F910F91FF90EF900895CF93DF9387
:1020C000EC016115710519F420E030E00FC0DB016F
:1020D0000D900020E9F71197A61BB70BE881F98155
:1020E0000280F381E02DAD0109959C01C901DF91CA
:1020F000CF910895EF92FF920F931F937C010E945E
:102100005E108C01C7010E943E10080F191FC80104
:102110001F910F91FF90EF900895282F80911A033F
:102120008823C1F057FF1AC015C02898909319034F
:102130008091F1008193E217F307B9F7411551053A
:1021400039F08091F200882319F48BE68093E8003F
:10215000AFBF02C04FEF5FEFCA010895AFB7F89469
:1021600027702093E9008091F200282F30E0241797
:1021700035070CF4A901FB019B01240F311D94E6E6
:10218000DACFDF93CF930F92CDB7DEB7BE016F5F8B
:102190007F4F41E050E00E948D10019719F02FEF22
:1021A0003FEF03C08981282F30E0C9010F90CF9104
:1021B000DF910895FF920F931F93F82E142F052F90
:1021C00040911D0350911E03212F302FC901DC01C6
:1021D000FB016EEF29C0F7FE02C0949101C090810F
:1021E00020911B0330911C0324173507ACF4809118
:1021F000E8008570E1F38091E80082FF03C02FEFD3
:102200003FEF17C09093F100C90101968F73907052
:10221000892B11F46093E8002F5F3F4F30931C032C
:1022200020931B03119731961097A9F6812F902FB9
:102230009C01C9011F910F91FF9008959C0180910D
:10224000E80082FFFCCFF901260F311D03C0809109
:10225000F1008193E217F307D1F7289884E6809381
:1022600019038BEF8093E800CB0108958093E90078
:102270008091F200882319F08AE38093E8000895A2
:10228000089510921A0381E08093D70080EA80932A
:10229000D80082E189BD09B400FEFDCF61E070E0A5
:1022A00080E090E00E947C0D80E98093D8008CE073
:1022B0008093E2001092E000559A209A08955F9270
:1022C0006F927F928F929F92AF92BF92CF92DF9246
:1022D000EF92FF920F931F93CF93DF93E82E842EFC
:1022E000752E80911A03882371F18B01242F352FCD
:1022F000C901EC017AEFF72E67E0962E9E2050E49C
:10230000552E8E2D90E040E2A42EB12CA822B922A9
:102310003AE3632E20E4C22ED12CC822D92258C021
:102320009FB7F8949092E9008091E80085FD02C083
:1023300020E004C08091F200252D281B9FBF22239E
:1023400061F4FA9419F42FEF3FEF4DC061E070E0B3
:1023500080E090E00E947C0D3BC0822F90E0C81787
:10236000D9070CF42C2FC21BD1094FB7F8949092C7
:10237000E900A114B10421F406C01092F10021502B
:102380002223D9F719C0E7FC03C0F801922F10C02F
:10239000C801322F06C0FC010196E491E093F100E0
:1023A00031503323C1F706C081918093F1009150E1
:1023B0009923D1F7020F111D8091E80085FF05C018
:1023C000209729F4C114D10411F06092E8004FBFA6
:1023D000209709F0A5CF5D9884E680931803282DF7
:1023E000372DC9019C01C901DF91CF911F910F9138
:1023F000FF90EF90DF90CF90BF90AF909F908F9025
:102400007F906F905F9008951F920F920FB60F927A
:1024100011242F933F934F935F936F937F938F93E9
:102420009F93AF93BF93EF93FF938091E10010923E
:10243000E100982F83FF0FC01092E90081E08093A4
:10244000EB001092EC0082E38093ED0010921A03EF
:1024500088E08093F00092FF34C083E08093E9002D
:102460008091F200882319F08AE38093E8008FB707
:10247000F89492E09093E9009091F2008FBF992335
:1024800021F08AE093E00E94790F8091180388235D
:1024900051F08091180381508093180380911803A4
:1024A000882309F45D9A80911903882351F0809163
:1024B000190381508093190380911903882309F42B
:1024C000289AFF91EF91BF91AF919F918F917F914A
:1024D0006F915F914F913F912F910F900FBE0F9091
:1024E0001F9018950F931F93DF93CF930F92CDB743
:1024F000DEB719828E010F5F1F4FC8010E949F0F28
:10250000C8010E940B15898190E00F90CF91DF9157
:102510001F910F9108951F920F920FB60F921124E1
:10252000EF92FF921F932F933F934F935F936F937D
:102530007F938F939F93AF93BF93EF93FF93DF931B
:10254000CF93CDB7DEB76197DEBFCDBF1092E90064
:102550008091E80083FF0FC1FE0131969E01275F45
:102560003F4F03C08091F1008193E217F307D1F749
:10257000289884E68093190382EF8093E80099817C
:1025800097FF05C08091E80080FFFCCF03C08EEF6D
:102590008093E800292F30E0C90180769070892B64
:1025A00009F0C2C08A81882329F41092F1001092A8
:1025B000F100D6C0813009F4D3C0833009F4D0C013
:1025C000853049F48091E80080FFFCCF8B818068E2
:1025D0008093E300C5C0863009F07CC01C81EF8089
:1025E000F8841230C1F51092E90010921C03109289
:1025F0001B0310921E0310921D030E94721299E099
:10260000FE013996DF01292F1D922A95E9F7998756
:102610001A8791E09E8790E8988B9AEF998B20918A
:102620001B0330911C03275F3F4F3C872B878D870F
:102630001092E90010921C0310921B03F0921E03EB
:10264000E0921D0380E0BF0149E050E00E94DA10F3
:102650000E94721285C01092E90010921C03109221
:102660001B03F0921E03E0921D03123241F482E23A
:1026700090E00E940315892B09F476C071C01130D7
:1026800079F488E0E816F10419F481E080931F03DF
:1026900080911F03882309F06BC0E5E7F7E013C0C2
:1026A000133009F061C08B81882319F4E7E3F7E068
:1026B0000AC0823019F4EBE3F7E005C0813009F07D
:1026C00053C0EDE5F7E0449180E8BF0150E00E947F
:1026D000DA1046C0873009F447C0883021F481E021
:1026E0008093F1003DC08930D9F523703070232BE1
:1026F000D9F5EAE9F7E091E031E026E39093E900CB
:102700003093EB0084918093EC002093ED009F5F69
:102710003196953099F78EE78093EA001092EA009F
:102720008B8180931A031CC08F8198851092E900D9
:1027300010921C0310921B0390931E0380931D03A1
:102740008D81882329F4CE0101960E94AB0F06C02B
:10275000823051F4CE0101960E94D413882321F0D7
:102760008EEF8093E80007C081E28093EB0003C006
:10277000E7E8F7E0A8CF6196DEBFCDBFCF91DF914C
:10278000FF91EF91BF91AF919F918F917F916F9149
:102790005F914F913F912F911F91FF90EF900F907C
:1027A0000FBE0F901F901895FC0191818081813A96
:1027B00031F4913089F080E0933089F40DC081329A
:1027C00069F49B3021F4828180933F0105C09A30E7
:1027D00029F482818093400181E0089580E008958A
:1027E000EF92FF920F931F938C01E62EDC01ED9187
:1027F000FC910480F581E02D0995F82ED801ED912A
:10280000FC910680F781E02DC8016E2D09958F2D72
:1028100090E01F910F91FF90EF9008951092210387
:10282000109225031092240387E591E090932303EF
:10283000809322030895EF92FF920F931F93DF93EB
:10284000CF930F92CDB7DEB789838B017A0184E0F5
:10285000BE016F5F7F4F41E050E00E945F1184E452
:10286000B801A7010E945F110F90CF91DF911F91D6
:102870000F91FF90EF90089582E048E050E00E94B1
:102880001B140895FC011682178210861186128689
:10289000138614823496BF010E943C140895DC0113
:1028A000683810F0685829C0E62FF0E067FF13C0C1
:1028B000E058F04081E090E002C0880F991FEA954F
:1028C000E2F7809514962C911497282314962C9354
:1028D000149760E012C0E45EF74F6491662319F428
:1028E00020E030E01DC067FF08C014968C9114975B
:1028F0008D7F14968C9314976F77FD0190E066237B
:1029000021F08681861709F416829F5F31969630F2
:10291000B1F7CD011496BD010E943C1421E030E0D6
:10292000C9010895CF93DF93DC01683810F068582F
:1029300025C0E62FF0E067FF12C0E058F04081E0CC
:1029400090E002C0880F991FEA95E2F714962C9147
:102950001497282B14962C93149760E00FC0E45E14
:10296000F74F64916623D9F167FF08C014968C91E4
:102970001497826014968C9314976F7716968C91A7
:1029800016978617A9F117968C911797861781F1DC
:1029900018968C911897861759F119968C9119975A
:1029A000861731F11A968C911A97861709F11B96A2
:1029B0008C911B978617E1F0ED01E0E0F0E09E2F8F
:1029C0008E81882321F4EA0FFB1F668306C09F5F78
:1029D00031962196E630F10591F7963049F481E081
:1029E00090E013969C938E93129720E030E007C0FE
:1029F000CD011496BD010E943C1421E030E0C901D4
:102A0000DF91CF91089580E86EE977E045E650E0E8
:102A10000E94DA100895FC0180818F5F808380E836
:102A200063E078E049E150E00E94DA10089597FBF6
:102A3000092E07260AD077FD04D00CD006D000203E
:102A40001AF4709561957F4F0895F6F790958195EA
:102A50009F4F0895AA1BBB1B51E107C0AA1FBB1FB4
:102A6000A617B70710F0A61BB70B881F991F5A951A
:102A7000A9F780959095BC01CD010895EE0FFF1F39
:102A80000590F491E02D09942F923F924F925F921E
:102A90006F927F928F929F92AF92BF92CF92DF926E
:102AA000EF92FF920F931F93CF93DF93CDB7DEB7D3
:102AB000CA1BDB0B0FB6F894DEBF0FBECDBF099467
:102AC0002A88398848885F846E847D848C849B84BE
:102AD000AA84B984C884DF80EE80FD800C811B81CC
:102AE000AA81B981CE0FD11D0FB6F894DEBF0FBEFB
:0A2AF000CDBFED010895F894FFCF6B
:102AFA0041343A2025692041353A202569001400DD
:102B0A00000000000A00190000001E001900000061
:102B1A0000000A00000028000A000000000100026C
:102B2A000104030203040100E100000000000001A7
:102B3A0001000000004D0F1410EC0E130FFA0E7571
:102B4A000F790F00000000F013141092144F144272
:022B5A00140065
:00000001FF
